:020000040800F2
:10000000000008246D6F0008BD6F0008BD6F000878
:10001000BD6F0008BD6F0008BD6F00080000000044
:10002000000000000000000000000000BD6F00089C
:10003000BD6F000800000000BD6F0008056F0008DC
:10004000BD6F0008BD6F0008BD6F0008BD6F0008E0
:10005000BD6F0008BD6F0008BD6F0008BD6F0008D0
:10006000BD6F0008BD6F0008BD6F0008BD6F0008C0
:10007000BD6F0008BD6F0008BD6F0008BD6F0008B0
:10008000BD6F0008BD6F0008BD6F0008BD6F0008A0
:10009000BD6F0008BD6F0008BD6F0008BD6F000890
:1000A000BD6F0008BD6F0008BD6F0008BD6F000880
:1000B000BD6F0008BD6F0008BD6F0008BD6F000870
:1000C000BD6F0008BD6F0008BD6F0008BD6F000860
:1000D000BD6F0008BD6F0008BD6F0008BD6F000850
:1000E000BD6F0008BD6F000800000000BD6F000874
:1000F000BD6F0008BD6F0008BD6F0008BD6F000830
:10010000BD6F0008BD6F0008BD6F0008BD6F00081F
:10011000BD6F0008BD6F0008BD6F0008BD6F00080F
:10012000BD6F0008BD6F0008BD6F0008BD6F0008FF
:10013000BD6F0008BD6F0008BD6F0008BD6F0008EF
:1001400000000000000000000000000000000000AF
:10015000BD6F0008BD6F0008BD6F0008BD6F0008CF
:10016000BD6F0008BD6F0008BD6F0008BD6F0008BF
:10017000BD6F0008BD6F0008BD6F000800000000E3
:10018000BD6F0008BD6F0008BD6F0008BD6F00089F
:10019000BD6F0008BD6F0008BD6F0008BD6F00088F
:1001A000BD6F0008BD6F0008BD6F0008BD6F00087F
:1001B000BD6F0008BD6F0008BD6F0008BD6F00086F
:1001C000BD6F0008BD6F0008BD6F0008BD6F00085F
:1001D000BD6F0008BD6F0008BD6F0008BD6F00084F
:1001E000BD6F0008BD6F0008BD6F0008BD6F00083F
:1001F000BD6F0008BD6F0008BD6F0008BD6F00082F
:10020000BD6F0008BD6F0008BD6F0008BD6F00081E
:10021000BD6F0008BD6F0008BD6F0008BD6F00080E
:10022000BD6F0008BD6F0008BD6F00080000000032
:10023000BD6F0008BD6F000800000000BD6F000822
:10024000BD6F0008BD6F0008BD6F0008BD6F0008DE
:10025000BD6F0008BD6F0008BD6F0008BD6F0008CE
:10026000BD6F0008BD6F0008BD6F0008BD6F0008BE
:10027000BD6F0008BD6F0008BD6F000800000000E2
:10028000BD6F000800000000BD6F00080000000006
:0802900000000000BD6F000832
:1002A00010B5054C237833B9044B13B10448AFF3B0
:1002B00000800123237010BD900000240000000086
:1002C000907E000808B5034B1BB103490348AFF308
:1002D000008008BD0000000094000024907E00080B
:1002E00001F0FF01102A2BDB10F0070F08D010F8E7
:1002F000013B013A8B422DD010F0070F42B3F6D1EB
:10030000F0B441EA012141EA014122F007047FF003
:1003100000070023F0E80256083C85EA010586EA5A
:10032000010685FA47F5A3FA87F586FA47F6A5FA96
:1003300087F68EB9EED1F0BC01F0FF0102F00702A2
:1003400032B110F8013B013A83EA010313B1F8D14D
:100350000020704701387047002D06BF354603382E
:10036000073815F0010F07D1013015F4807F02BF67
:10037000013015F4C03F0130F0BC0138704700BFB8
:1003800030B570B1CC6864B18A6852B10B6943B1C1
:100390000D6849688560C1608361C0E9042400205C
:1003A00030BD4FF0FF30FBE773B5002346680446CD
:1003B000019366B1A36998470546A3699847401B16
:1003C000B0F5FA6FF9D901230025636027E083684F
:1003D00003B19847202300252360636901AA1221F5
:1003E0003046984700281DDB019B03F01F03B342F2
:1003F0001AD10025266020681F2833D87DB92369CB
:100400004FF400422946984700282EDB636901AA71
:1004100029462068984700280ADA6FF00405284624
:1004200002B070BD6FF004050136202ED5D1E2E791
:10043000A36998470646019B1B0402D4002DB9D03E
:10044000EDE7A3699847801BB0F5FA7F07D8636989
:1004500001AA0021206898470028ECDADDE76FF058
:100460000105E8E76FF00205D9E76FF00305D6E76D
:1004700070B50E4E05464FF47A730D4A3078B3FBD3
:10048000F0F31068B0FBF3F000F096F8044650B9B2
:100490000F2D08D8024629464FF0FF3000F05AF8D9
:1004A0002046756070BD0120FCE700BF00000024FD
:1004B0002400002410B5032000F03AF80020FFF7D4
:1004C000D7FF044618B906F00BFD204610BD0124E5
:1004D000FBE70000034A044B11681B780B441360D0
:1004E000704700BFAC00002400000024014B1868D6
:1004F000704700BFAC00002438B50446FFF7F6FF94
:100500000546631C1EBF044B1B78E418FFF7EEFF83
:10051000401BA042FAD338BD00000024034A5368B0
:1005200023F4600318435060704700BF0004005874
:10053000074A0002D36800F4E06023F4E0631B0480
:100540001B0C43F0BF6343F400330343D360704795
:1005500000ED00E0164B70B5DC684FF0FF36C4F3D9
:100560000224C4F10705231D042D28BF0425062BF2
:1005700006FA05F38CBF033C0024002821EA03039C
:1005800003FA04F306FA04F422EA040443EA040337
:100590004FEA0313DBB206DB00F1604000F5614077
:1005A00080F8003370BD00F00F00024A1354F9E7E1
:1005B00000ED00E014ED00E00138B0F1807F0AD2D8
:1005C000064BF021064A5860002082F823100722CB
:1005D00098601A6070470120704700BF10E000E08B
:1005E00000ED00E0BFF35F8F044A536A23F48033C9
:1005F00053620022024B5A60704700BF00ED00E0DA
:1006000090ED00E0064A40F00100064B5860536A46
:1006100043F480335362BFF34F8FBFF36F8F704744
:1006200000ED00E090ED00E04378124A10B59360D1
:100630000178D9B14368D360C37A047B1B0643EACF
:1006400004730B43817A43EAC143417B43EA81430C
:10065000817B43EA4143C17B43EA0143417A43EA58
:100660000123017A43EA4103136110BDD160116196
:10067000FBE700BF90ED00E08B680A6891F80CC0C2
:100680001A430B7C002B2DE9F04F08BF4FF40023D9
:1006900085B018BF002391F804E04F7B00934B7C9A
:1006A0008E7B002BCD7B8C7C0CBF4FF40033002362
:1006B00091F81C9001934B6991F81DB01A438B6916
:1006C00013438A7F002A0CBF4FF4806200220292FB
:1006D000CA7F039291F82020002A0268486AD2F863
:1006E00000A008BF4FF4807843EA0003C86A2AF0EC
:1006F0007F4A18BF4FF00008034303982AF47B0A8F
:100700002AF4FE4A2AF07C0A43EA0A0343EACE634B
:1007100043EACC5343EA875343EA465343EA05533B
:1007200043EA044343EA093343EACB2391F828B070
:1007300043EA4023009843EA0B1303430198034321
:100740000298034343EA08031360CE6B91F83230FA
:1007500091F83870002B536891F8305023F07C5397
:1007600091F831400CBF4FF48030002023F4EF2388
:1007700023F4FF6323F0070343EA46634E6B3343DE
:100780008E6C43EA076343EA85430D6D43EA4443B5
:1007900091F854400343486C5360D36823F4877343
:1007A00023F00103034391F8400043EA0023D360A0
:1007B00091F84C30002B136F23F0F2030CBF802014
:1007C00000201B041B0C43EA06432B43CD6D43EA78
:1007D000440391F8614003431367D2F8900091F805
:1007E000563020F00300034391F8550043EA4003DC
:1007F000886DC2F89030D2F8003D23F072030343B5
:10080000C2F8003D91F8603091F86210002BD2F8E8
:10081000303D23F07B030CBF402000202B4343EAF4
:10082000041343EAC1030343C2F8303D05B0BDE8F9
:10083000F08F0000026802F58050036823F4F04353
:1008400030B523F002030C680D79234341F2040410
:1008500003600B7B1059DB0320F4504043EA05335F
:100860008D6820F001002B43034302F5885013519B
:10087000124B05684C7B2B4043EA04430C6A23432C
:1008800041F2041403604B7F087D1B03155943EAB2
:100890000013086903430A482840034341F2081043
:1008A000135113580C7F23F00043896923F47C1300
:1008B00043EAC4730B43135030BD00BF00C0FEFFBA
:1008C000EFEFC0FFD0F828C02DE9F04F00EB8C0A05
:1008D0009346DAF81830DD68002D02DA0220BDE810
:1008E000F08F0C688E6814F004072AD02D0C4A6A29
:1008F000D0F800802D0445EA020E4EF48032DA6012
:10090000D8F8602042F48012C8F86020220718D579
:100910009D68AAB2CD6A42EA05450A6B9D6042F421
:1009200040322EF440252A43DA60D8F8642042F49D
:100930008012C8F86420D8F8502042F08062C8F8CD
:10094000502014F010080BD09D688A6925F47F555B
:1009500025F03F052A439A60DA6842F08062DA6047
:1009600014F0140E18D0DA6842F04045DD600CF146
:100970000105032D88BFACF1030500EB850EDEF801
:1009800018E0DEF80C90B9F1000F5EDA22F00042B8
:1009900042F08042DA60A1E76546D3F808900EF194
:1009A000010E326829F47F591A6029F03F097268F4
:1009B00049EA0209B268C3F8089029F07F5929F47E
:1009C0007C19002A45D016685E60566849EA0646DA
:1009D0009E60DE68B8F1000F43D026F4F0080E6A7E
:1009E00048EAC648CE694FEA984846F480264FEA5E
:1009F000884848EA0608C3F80C802FB19E6826F4A0
:100A000040478E6A3E439E60DE6826F0804747F08E
:100A10002047DF60A70706D5CC6826F0874644F05C
:100A200020443443DC60534E9468ACBB9A68BBF1FD
:100A3000000F00F09C8042F000429A60DA6842F0B9
:100A40008052DA608562002049E773464FF0010E5C
:100A5000A3E71A715A719A71DA713246C3F8089095
:100A6000B7E726F4FF484E6814F0010F28F07F081E
:100A700048EA0606DE601FBF26F440384E6948EAA1
:100A80000606DE60A606B8D5DE6826F040680E6968
:100A900048EA0606DE60B0E76F1C032F88BFEF1E32
:100AA00000EB87039B69D3F80C80B8F1000F15DACF
:100AB000DAF81810002296453FF410AFCB680132E7
:100AC00023F00043CB600CF10103032B88BFACF192
:100AD000030300EB83019C468969ECE722680EF171
:100AE000010ED3F808901A6009EA0609626849EA1B
:100AF0000209A268C3F8089029F07F5929F47C19EB
:100B0000D2B15568146849EA05455C609D600D687E
:100B1000EC0619D5CC694FEA984844F480244FEA92
:100B2000884844EA0804DC60DC683D4624F08044E0
:100B300044F00044DC6077E71A715A719A71DA71F7
:100B40002246C3F80890E2E728F4FF484C6828F0F2
:100B50007F0848EA0408EC07C3F80C8041BF28F47A
:100B600040384C6948EA0408C3F80C80DCE722F0FE
:100B7000004262E700C0FFFF0AB1032903D9012345
:100B800043651846704700EB8100C16A0A600A613C
:100B9000CA6842F08070C86023B142F040728B6036
:100BA0004B61CA60CB68002043F00043CB607047C4
:100BB00090F85120D2B2102A10B52AD1232341F245
:100BC000041480F851300368196841F0020119607B
:100BD000196841F001011960D3F8001D41F00101CD
:100BE000C3F8001D195941F00101195141F20814CF
:100BF000195941F00101195103F58B53196841F45A
:100C000081711960222380F8512080F85230002031
:100C100010BD0120FCE7F8B50446154629B9436D1F
:100C200043F001036365012027E090F85130102B59
:100C3000F9D10022FFF746FE18B1636D43F00203BD
:100C4000F0E7A36A9A1D54F822605A1C032A8ABF4F
:100C5000033BA262A362A26A2368063203F58953AA
:100C600054F822201A60FFF741FC0746F268002A78
:100C700004DB1023002084F85130F8BD236803F50D
:100C80008B531968C90409D5626D42F00802626588
:100C90001B68A365E02384F85130C4E76B1CE6D0E1
:100CA000FFF724FCC01BA84201D8002DDED1636DE4
:100CB00043F0040363651023EDE7F0B5456C7DB99F
:100CC000C46B2A462946052600EB8403DF6AFF68C9
:100CD000002F01DB013E05D1002939D100234364F7
:100CE00000201EE017F0805F04F101031AD00131EB
:100CF000012908BF2246032B88BFE31E00EB8304B3
:100D0000E46AE468002C08DB640006D501248464EE
:100D10001C19032C8CBF033B23464164C0E90F32EE
:100D20000120F0BDBF000AD5032B4FF0010188BFA1
:100D3000E31E00EB8302D76A22461C46C7E7032B5B
:100D400001F1010188BFE31E00EB8304E76AF4E7C9
:100D500000EB820300264FF0010C4FF0030EDB6A1C
:100D60001C691E731C605C695E739E7383F80FC000
:100D700014B19C6083F80FE0DC6844F00047DF604A
:100D8000C76C17B144F04044DC60531C0135032BA1
:100D90008CBF033A1A46A94200EB8203DB6ADFD11B
:100DA0009CE7F8B5076C06460C4600EB8703DD6A46
:100DB000436C93B1706C002201381146884212D8FE
:100DC0007CB1EB687169C3F30E039B1A99422AD375
:100DD0002A69C4E90023002004E0FFF76EFF002821
:100DE000E8D10120F8BD6B69CBB1002CF9D02B699B
:100DF000236073696360A468002CF2D06A69226082
:100E000063600131EB68A468C3F30E027B1C032B03
:100E100088BFFB1E06EB83051F46ED6ACEE72B69F4
:100E200023607369ECE76A69002ADAD02A69C4E9A9
:100E30000021A268002AD4D068695B1A1060536050
:100E4000C9E770B5D0E9105304460E466BB1636C28
:100E50002B445A1E032A0ED804EB82040020E36AB6
:100E6000DB68C3F30E03336070BDFFF726FF002875
:100E7000EDD10120F8E75A1FEEE7416CF0B50029EB
:100E80003FD0836C93B14F1C066C00244FF0010CD3
:100E9000013900EB86032546DB6AA74208D10168C9
:100EA00041F228128B5045640020F0BD0F46EBE75D
:100EB0001A691A601A7B1D735A7B5D739A7B9D7346
:100EC000DA7B83F80FC05A692AB15A699A60DA68E6
:100ED00042F00072DA60DA6842F00042DA60C26C16
:100EE0001AB1DA6842F08042DA60A14207D9721C76
:100EF000032A88BFF21E00EB82031646DB6A013428
:100F0000CBE70120D1E770B5044600681D46D0F854
:100F10000032DB0701D5012070BDD0F8003223F08C
:100F2000787343EA415121F4F81141EA024242F058
:100F30000D02C0F80022FFF7D9FA06462368D3F85D
:100F4000000210F0010004D1D3F804329BB22B60F0
:100F5000E2E7FFF7CBFA801BB0F57A7FEED9DAE74C
:100F600038B504460068D0F80052ED0701D50120DD
:100F700038BDD0F800029BB220F0787040EA4151B1
:100F800021F4F81141EA02420C4922F00C02C1F8A6
:100F9000043242F00502C1F80022FFF7A7FA054625
:100FA0002368D3F8000210F00100E1D0FFF79EFAA9
:100FB000401BB0F57A7FF3D9D9E700BF008002402B
:100FC00038B503680546D3F8004200F019FE124B0D
:100FD000124A24F470640344934205D844F4007424
:100FE0002B68C3F8004238BD0D4B0E4A03449342B0
:100FF00002D844F44074F3E70B4B0C4A0344934289
:10100000EED90B4B0B4A0344934294BF44F48074D3
:1010100044F48064E4E700BF00D3CEFEBFE1E40007
:1010200040F1E9FD3F787D0100796CFCFF596202D7
:10103000001F0AFA7FF0FA0270B50546A4B0002836
:1010400000F0C08090F851300BB905F095FC2323D7
:10105000287A85F85130964BD3F8F42042F00202FA
:10106000C3F8F420D3F8F43003F002030193019B9A
:10107000002840F09880FFF751FA2B6803F5805361
:101080001A6842F001021A60FFF730FA06462B6830
:1010900003F580531C6814F0010440F08780284653
:1010A0000126FFF78DFF00F0ABFD824B2A680BA9EC
:1010B0008DF83B6014948DF849408DF84B408DF8C5
:1010C00030608DF85E608DF83A608DF854408DF890
:1010D0008C608DF864401A948DF88D408DF88E40A8
:1010E0008DF838400D948DF83D608DF83E408DF8B8
:1010F00048401F941D9416948DF86C408DF88240E2
:101100008DF84A608DF84C608DF85D40B0FBF3F0CF
:101110004FF40053013811934FF4C363C2F8DC005D
:1011200028461893202322934FF040530B934FF4FB
:101130008043109302238DF8394021938DF880402D
:101140008DF881408DF85C408DF83C601C948DF8E2
:101150007860FFF791FA4FF4001302A928468DF842
:101160000C60089306934FF4067304960A93029456
:101170008DF824408DF815408DF814408DF81C40F2
:101180008DF82540FFF756FB2968686901F58852FC
:10119000136823F4E01343F40023136010F00302F8
:1011A00012D06E650BE04FF4000064E7FFF79EF984
:1011B000801BB0F5FA7F7FF66AAF04236B65E023EE
:1011C00085F85130012071E041F208140B5923F4E5
:1011D000FF4323F07E0343EA4003E8680B5100F12C
:1011E000600605F1180403461A705A709A70DA7096
:1011F0001A715A719A71DA711A725A729A72DA7293
:101200001A735A739A73DA7344F8043B1833B3426F
:10121000EAD1AA6241F22C1303220024CA5041F2FF
:1012200014132A69C85001F5895302F16006186049
:1012300005F12C0013461C705C709C70DC701C71F6
:101240005C719C71DC711C725C729C72DC721C7330
:101250005C739C73DC731C745C749C74DC741C7510
:101260005C759C75DC7540F8043B1833B342E2D1E1
:1012700041F2301303206C64C5E90F44C5E9124400
:10128000C85041F21C130020CA50483241F22813C2
:10129000CA506B689A88C1F800231B68C1F80433F0
:1012A00010236C6585F8513085F8523024B070BD3C
:1012B0000044025840420F002DE9F04F0B6885B002
:1012C000DFF8C0814FF0B04901930023DFF8B8E1A7
:1012D0000127019A9F4002EA0705AF4240F0B7801C
:1012E0004A6822F01006022E16D14FEAD30A03F004
:1012F000070B4FF00F0C00EB8A0A4FEA8B0BDAF862
:1013000020400CFA0BFC24EA0C0C0C6904FA0BF4D8
:1013100044EA0C04CAF820404FEA430A0324D0F8F8
:1013200000B002F0030C04FA0AF4013E0CFA0AFCC5
:10133000E443012E04EA0B0B4CEA0B0CC0F800C08E
:1013400010D8866806EA040BCE6806FA0AFC4CEA56
:101350000B068660466826EA0707C2F300169E4021
:1013600037434760C66834408E6806FA0AF634434D
:10137000C460D4006BD5D8F8F44023F0030603F022
:1013800003074FF00F0C44F0020406F1B046BF0013
:10139000C8F8F44006F58066D8F8F44004F002047A
:1013A0000394039C0CFA07F4D6F808A02AEA040C6C
:1013B000334CA04252D004F58064A04250D004F5D2
:1013C0008064A0424ED004F58064A0424CD004F565
:1013D0008064A0424AD004F58064A04248D004F55D
:1013E0008064A04246D004F58064A04244D004F555
:1013F0008064A04242D004F58064A04214BF0A2455
:101400000924BC40D70344EA0C04B4606FEA050623
:10141000DEF8004054BF34402C439703CEF8004020
:10142000DEF8044054BF34402C43D7024FF0B0479D
:10143000CEF80440D9F8004054BF34402C43920207
:101440003C607C6854BF34402C43C9F804400133ED
:10145000102B7FF43DAF05B0BDE8F08F0024D0E73E
:101460000124CEE70224CCE70324CAE70424C8E71A
:101470000524C6E70624C4E70724C2E70824C0E71A
:10148000000002580044025880000058F8B5036874
:101490000546D8075CD42B68990700F1AF802B680C
:1014A000D90625D5AC4B1A6902F03802082A0BD0B0
:1014B0001A6902F03802182A40F0F7809B6A03F09C
:1014C0000303012B40F0F180A34B1A68D20502D52B
:1014D000EA69802A53D158684FF0F84292FAA2F292
:1014E000B2FA82F12A6A8A4020F0F8410A435A602F
:1014F0002B68190700F10B812B689A0600F13081E7
:101500002B685C071ED5954C236843F480732360D9
:10151000FEF7ECFF06462368DA0540F14681AB682A
:101520008D4C012B40F04881236F43F0010323676A
:1015300041F28834FEF7DAFF874E0746336F9B0788
:1015400040F160816A6A002A40F0638100202FE048
:10155000814B1A6902F03802102A09D01A6902F088
:101560003802182A0DD19B6A03F00303022B08D11D
:10157000794B1B689A038ED56B68002B8BD10120A9
:1015800016E06B68744CB3F5803F12D1236843F4C6
:1015900080332360FEF7AAFF6F4C064623689B0347
:1015A0003FF579AFFEF7A2FF801B6428F6D9032030
:1015B000F8BDA3B9236823F480332360236823F4A0
:1015C00080232360FEF792FF064623689F037FF582
:1015D00062AFFEF78BFF801B6428F6D9E7E7B3F50F
:1015E000A02F236803D143F480232360CEE723F4A4
:1015F00080332360236823F48023CAE7564BE968CD
:101600001A6912F0380F07D01A6902F03802182A46
:1016100028D19B6A9C0725D14F4A1368580701D5EA
:101620000029ACD013684C4C23F019030B43136012
:10163000FEF75CFF064623685B070DD561684FF433
:101640007C3393FAA3F3B3FA83F22B69934021F42A
:101650007C321343636022E7FEF748FF801B0228B9
:10166000E9D9A4E73C4C236879B123F019030B4373
:101670002360FEF73BFF064623685F07DED4FEF7D4
:1016800035FF801B0228F7D991E723F0010323607F
:10169000FEF72CFF0646236858077FF500AFFEF7DC
:1016A00025FF801B0228F6D981E7EB692A4CEBB1B4
:1016B000236843F080032360FEF718FF0646236883
:1016C000DF050DD561684FF0F84393FAA3F3B3FA41
:1016D00083F22B6A934021F0F8421343636007E7DB
:1016E000FEF704FF801B0228E9D960E7236823F096
:1016F00080032360FEF7FAFE06462368D8057FF5CF
:10170000F7AEFEF7F3FE801B0228F6D94FE76B69B0
:10171000114C83B1636F43F001036367FEF7E6FE8C
:101720000646636F9B073FF5E7AEFEF7DFFE801BC3
:101730000228F6D93BE7636F23F001036367FEF7E6
:10174000D5FE0646636F9F077FF5D6AEFEF7CEFE49
:10175000801B0228F6D92AE70044025800480258A4
:10176000AB696E4C83B1236843F480532360FEF76A
:10177000BDFE0646236898043FF5C2AEFEF7B6FEEE
:10178000801B0228F6D912E7236823F480532360D4
:10179000FEF7ACFE0646236899047FF5B1AEFEF76E
:1017A000A5FE801B0228F6D901E7FEF79FFE801BED
:1017B00064287FF6B0AEFAE6B3B9236F41F28837FA
:1017C00023F001032367236F23F004032367FEF74D
:1017D0008DFE0646236F98077FF5B4AEFEF786FEB2
:1017E000801BB842F6D9E2E6052B236F03D143F004
:1017F0000403236798E623F001032367236F23F094
:10180000040394E6FEF772FEC01BA0427FF696AE7C
:10181000CDE6424C236903F03803182B3FF4AFAEFA
:101820002368022A23F08073236069D1FEF75EFEED
:101830000646236899015DD4A36AAA6A23F47C73DF
:1018400023F003031343EA6A43EA0213A3626B6BB8
:10185000AA6B013B013A5B0212049BB202F4FE0246
:1018600013432A6B013AC2F308021343EA6B013AAD
:10187000120602F0FE42134323634FF6F873626BC5
:1018800093FAA3F3B3FA83F122F47F42AB6C22F014
:10189000F8028B4013436363E36A2A6C23F00C0362
:1018A0001343E362E36A6A6C23F002031343E362C7
:1018B000E36A43F48033E362E36A43F40033E362B0
:1018C000E36A43F48023E362E36A43F00103E362E3
:1018D000236843F080732360FEF708FE0F4C054633
:1018E00023689A013FF532AEFEF700FE401B022846
:1018F000F6D95CE6FEF7FAFD801B022899D956E678
:10190000FEF7F4FD054623689B017FF51FAEFEF749
:10191000EDFD401B0228F6D949E600BF00440258FD
:10192000474B1A6902F03802102A10B500F0858082
:10193000182A0CD00AB1434810BD1A68424812F068
:10194000200FF9D01B68C3F3C103D840F4E79C6AA9
:10195000F7EE007A986AD96A5A6BC0F3051001F065
:101960000101C2F3CC024A4307EE102A04F003023D
:10197000012ABAEEE97A02D00ED3022A4CD01B6BB0
:10198000304AC3F3080306EE903AF8EEE66A36EE04
:10199000877A37EE277A4BE01A6812F0200F2A4A2E
:1019A00026D019681B6BC1F3C101C3F30803CA40F9
:1019B000B2FBF0F206EE902AB8EEE66A06EE903A36
:1019C000F8EEE66A36EE877A37EE277A66EE077A21
:1019D0001B4B1B6BC3F34623013307EE103AF8EEA3
:1019E000C76A87EEA67AFCEEC77A17EE900AA3E7DD
:1019F0001B6BC3F3080306EE903AF8EEE66AB2FBFF
:101A0000F0F336EE877A37EE277A07EE903AF8EE63
:101A1000E77A67EE277ADBE71B6B0C4AC3F3080310
:101A200006EE903AF8EEE66A36EE877A37EE277AD7
:101A3000B2FBF0F207EE902AE9E704487CE700BF2A
:101A40000044025800093D000090D00300127A00C3
:101A5000674A136803F007038B422DE9F0410446FF
:101A60000D4641D3226897074BD4D60751D4604A1C
:101A7000136803F00703AB4200F2A6802268550703
:101A800000F1AD80100706D55A496069CB6923F093
:101A900070030343CB61D10606D55649A069CB69D3
:101AA00023F4E0630343CB61930606D5514AE16911
:101AB000136A23F070030B431362FFF731FF4D4BA2
:101AC0004FF480729B6992FAA2F2B2FA82F203F4A6
:101AD0007063D340484AD35CD840484B186000201C
:101AE000FEF7C6FC00200AE0136823F007030B434F
:101AF0001360136803F007038B42B3D00120BDE8E5
:101B0000F0813C49E0688B6923F00F0303438B614C
:101B1000ABE7384BA1689A6922F470620A439A6174
:101B200061681A6802291CD112F4003FE6D01A69D4
:101B300041F288382F4F22F007020A431A61FEF75C
:101B4000D5FC63680646022B18D13B6903F03803C5
:101B5000102B8CD0FEF7CAFC801B4045F5D9032022
:101B6000CDE7032902D112F0007FDFE7012902D17E
:101B700012F4807FDAE712F0040FD7E7032B0BD1C2
:101B80003B6903F03803182B3FF471AFFEF7AEFC4E
:101B9000801B4045F4D9E2E7012B10D13B6903F0EB
:101BA0003803082B3FF463AFFEF7A0FC801B4045D1
:101BB000F4D9D4E7FEF79AFC801B4045CFD83B69A7
:101BC00013F0380FF6D152E7136823F007032B43C5
:101BD0001360136803F00703AB428FD14EE705494A
:101BE00020698B6923F0700303438B614AE700BFD0
:101BF0000020005200440258B47F00082400002452
:101C000008B500F017F8084B01229B6992FAA2F27E
:101C1000B2FA82F203F00F03D340044AD35CD840F7
:101C2000034B186008BD00BF00440258B47F000891
:101C30002800002408B5FFF773FE084B4FF48072AC
:101C40009B6992FAA2F2B2FA82F203F47063D34073
:101C5000034AD35CD840034B186008BD00440258C7
:101C6000B47F00082400002440BA80B2704700BA54
:101C7000704708B500F00CF800F004FA00F04FFAD5
:101C800003F024FB00F0A0FEBDE8084003F0CABA50
:101C90000A4B4FF4C8610A4A23F00303196000217C
:101CA0001360197103F5C861936051600549C3F869
:101CB0004016012183F84416704700BF4F020024EC
:101CC000B00000244006400670B50446002800F02D
:101CD0008380830706D0414B4FF4D6724049414878
:101CE00005F0B4F9404D2B68A34202D86B68A342BB
:101CF00006D83A4B40F2AF123C493A4805F0A6F9F3
:101D00002B68A34268D86B68A34265D914F8043CD9
:101D1000A4F1080633B9314B4FF4E072344931482D
:101D200005F094F9002304F8043CAB68B3422B6837
:101D300088BFAE609E4206D2284B40F25D122D490C
:101D4000284805F083F96B689E4206D3234B4FF475
:101D5000AF722949234805F079F914F8043C33B1EE
:101D60001E4B40F25F1225491E4805F06FF934F80A
:101D7000083CB3F5C86F06D9184B4FF4B17220492F
:101D8000184805F063F92B6834F8081C5A18964275
:101D900010D0107970B9686882420BD0A86882426E
:101DA0005A5A24F8082C5A5AA6EB030108BFAE6011
:101DB0001A44518034F8062C99188E420CD00879B8
:101DC00050B9A868864208BFA96034F8081C995227
:101DD00034F8081C0B445A8070BD00BFC47F000853
:101DE000F37F000814800008B00000243C80000845
:101DF00053800008678000087E80000898800008F3
:101E0000B3800008F8B503314FF6FC7604460E4067
:101E10000B2E04D9B6F5C86F02D900245AE00C265F
:101E20002D4D2B68A34202D86B68A34206D82B4BDA
:101E30004FF4FA722A492B4805F008F92B68A3429F
:101E400048D86A68A24245D9A4F1080234F8080CBF
:101E5000D21AA0F1080192B2891A89B2B14218D2FD
:101E60001E4B40F2062220491E4805F0EFF8D4E749
:101E700006F114078F422DD802F10801AF680E4415
:101E8000B6B299198F4288BFA96000250D71985389
:101E900017E01FD01F1897F804C0BCF1000FE7D15E
:101EA00002F1080133F800C0A8680E44B8424FF0B0
:101EB0000000B6B203EB0601087108BFA96023F861
:101EC00006C04A8024F8086C9A5BB2F5C86F01D04E
:101ED00013445E802046F8BDB0000024C47F000893
:101EE000DD80000814800008F48000082DE9F0412E
:101EF00000286DD003304FF6FC7505400B2D04D93A
:101F0000B5F5C86F02D9002062E00C25354EC5F545
:101F1000C86C6FF00708B76831687B1A9BB26345DD
:101F2000F1D2CC18C85A94F804E0BEF1000F57D192
:101F3000A8EB03020244AA4252D305F1140C6245F5
:101F400048D305F108021A4492B201EB020C8CF856
:101F500004E08852ACF802300123228023718B5AAE
:101F6000B3F5C86F01D019444A80A74212D1234665
:101F7000D6E90002197911B19A422ED113469A423C
:101F8000B36007D031B1184B40F2CF22174918483F
:101F900005F05CF8083573682544AB4206D2124B55
:101FA0004FF435721349124805F050F8A3070DD0CD
:101FB0000D4B40F2D62210490D4805F047F80A4B68
:101FC0004FF436720D490A4805F040F804F1080054
:101FD000BDE8F08101232371C7E71B880344C9E7EB
:101FE00003469CE7B0000024C47F00081481000869
:101FF000148000082D8100085D8100088C81000894
:1020000010B5046854B123680360A30706D0044BDD
:1020100040F249120349044805F018F8204610BD63
:10202000AF810008DF8100081480000838B58B07F5
:1020300005460C4606D0064B40F29D12054906485F
:1020400005F004F82B681A6822601C6038BD00BFD8
:10205000AF81000802820008148000084368002253
:102060008168033330B523F0030344880A60944247
:1020700000DC30BD0D6801321D6005880B602B440B
:10208000F5E7000038B50024044D55F8240001346C
:10209000FFF7E4FF092CF8D138BD00BFA87E000887
:1020A000082808B507D8084B53F820309868BDE8D1
:1020B0000840FFF7A5BF054B40F2871204490548C9
:1020C00004F0C4FF002008BDA87E0008AF8100080E
:1020D0003482000814800008082806D9074B40F213
:1020E000DB120749074804F0B1BF29B1064B53F88A
:1020F00020000830FFF79ABF704700BFAF8100088B
:102100005182000814800008A87E000890F82B3047
:1021100001461B0702D5043103F040BB70477047EE
:1021200073B504460D4691B10B680193019A63683B
:102130009A420AD0261D01A9304601F0BFF901A933
:10214000304603F05BF92DB9656002B070BD054BF8
:102150001B68EAE72B686360002BF6D02046FFF788
:10216000D5FFF2E7A47F000870B5064615461C4669
:1021700009B10B684BB93046FFF7D2FF05B12D68A6
:10218000B56004B12468F46070BD02B11568B56033
:1021900004B12468F4603046BDE87040FFF7C0BF6A
:1021A0002DE9F843099E04460F46904699462EB9FC
:1021B000154BFB221549164804F048FF0323154A26
:1021C0000025204684F82030089BE560E361137801
:1021D00084F82B50591C84F82E300A9B117042460B
:1021E000236139464B46C4E90155FFF7BDFF204640
:1021F000B04730B9084B1A6822601C602046BDE821
:10220000F8832C46FAE700BF6C8200089D82000824
:1022100014800008E00000244C370024014B1860B3
:10222000704700BF5037002490F82B20D10709D405
:1022300042F00101520780F82B1003D543680BB11F
:10224000FFF764BF704790F82B30D90707D523F00C
:1022500001011B0780F82B1001D503F0EDB9704781
:1022600090F82B20510709D442F00401D20780F8DE
:102270002B1003D543680BB1FFF748BF7047000030
:1022800070B5044670BB204B40F23F221F492048E6
:1022900004F0DCFE002070BD1D46267B60680EB198
:1022A000032E06D1401A04F1100290420AD20120F6
:1022B000F1E7013E012E10D800290BDA6289AA420B
:1022C000F5D3401A628960601A44628122891344FE
:1022D0002381DFE7002AF4D1E9E70B4B40F27722B4
:1022E0000C490CE00029D5D08BB2D5DA5D4260896B
:1022F000ADB2A842D1D2044B40F24722064904486D
:1023000004F0A4FED3E700BFB482000836840008BE
:102310001480000802830008E4820008074B0022B2
:1023200010B51A70064B1C682CB1206F20B100F05C
:10233000C5FB0023236710BDE468F5E7543700248C
:102340005C37002470B5049D04281ED8DFE800F037
:102350002603281B1B002220033020F00304BDF8B5
:1023600014000E1986424FF0000016D81860CDB147
:102370002C445C6002201A7301221981587318469C
:102380005981DA8109E00020E6E7074B40F2C512E7
:102390000649074804F05AFE002070BD3620DBE7EE
:1023A0000E20D9E75D60E5E7B482000810830008DD
:1023B000148000080022FFF763BF0122FFF760BF0F
:1023C0002DE9F843044650B92546284B40F2D22265
:1023D0002749284804F03AFE2846BDE8F883037BE5
:1023E000032B06D9214B40F2DE222349214804F079
:1023F0002DFE00251D4EDFF888801E4FE38933B97E
:10240000334640F2EB224146384604F01FFEE38992
:10241000013B9BB2E381002BDED1637BD4F80090BB
:102420009B0711D5236933B9334640F2F92213498A
:10243000384604F00BFE23692046984701354C4688
:10244000EDB2002CDAD1C7E7237B032B04D1214660
:102450000820FFF741FEF1E7013B012B02D821469E
:102460000720F6E72046FFF72FFCE7E7B4820008D5
:102470003684000814800008348300085F83000855
:10248000498300082DE9F84F0E46174604280ED858
:10249000DFE800F01503170B0B002225032F00F2D5
:1024A000BB80DFE807F091ACAC100025F6E75D4B90
:1024B0004FF48B725C495D4804F0C8FD4AE0362554
:1024C000ECE70E25EAE70820FFF7EAFD044628B905
:1024D000574B01221A702046BDE8F88F032300F500
:1024E0001877068103730023036043190335133300
:1024F00025F0030523F00303C5F514754360B542C9
:1025000028BF35462B4445819F4206D2454B4FF4A8
:1025100098724849454804F099FD0123A346DFF825
:102520000481E3816389DFF818A1F61ADFF8FC90D3
:10253000002E04DC0123E38100236373CBE7082032
:10254000FFF7AEFD054638B9394B012220461A7017
:10255000FFF736FF0024BEE7032303730023437312
:1025600003604FF6FF73CBF800009E4206D143464E
:102570004FF4A6725146484604F068FDB3B2B3F575
:10258000147F2B8128BF4FF414736B8105F1100366
:102590006B609B0706D043464FF4A9722649484614
:1025A00004F054FD6289636813449F4206D2434697
:1025B00040F255121F49484604F048FD0123AB463E
:1025C000EB816B89F61AB3E705F11300F31C20F0D9
:1025D000030023F00303184480B29842BAD3FFF7F4
:1025E00085FC04460028B5D0054400230681133538
:1025F0004681036025F00305037345609AE70720D1
:10260000FFF74EFD04460028A4D000230681468132
:102610004360036007738DE7024B4FF4C6720749AE
:1026200049E700BFB48200088083000814800008D6
:10263000543700249B830008E08300080D840008C1
:10264000CC8300082DE9F8430D46044630B92E4BE3
:1026500040F2F3122D492E4804F0F8FC237B032BA3
:1026600006D9294B40F2F7122A49294804F0EEFC1A
:102670002689AE4245D9AE1B234FDFF8A490DFF880
:1026800090806389AB4219D3227B002A31D1AB42BF
:102690002FD0637B9B072CD461682046091B2944FB
:1026A00089B2FFF7AFFB044618BB174B40F21D225F
:1026B0001949174804F0CAFC6481FFDEED1A4FF691
:1026C000FE739E42ADB206DD3B4640F20B22494608
:1026D000404604F0BBFC2389334423812468002C4A
:1026E000CFD13B4640F20F220C49404604F0AEFCED
:1026F000C7E720686581258108B1FFF761FE0023E7
:102700002360BDE8F88300BFB48200082884000875
:102710001480000840840008848400086C84000849
:102720005B8400080346002290B2013203B970476F
:102730001B68F9E758B1C38901339BB2C38133B930
:10274000034B40F239320349034804F07FBC704721
:10275000B4820008A08400081480000870B50D46FB
:10276000044600B161B9154B40F24D321449154889
:10277000BDE8704004F06ABC29890B4423811446EB
:1027800022682389002AF7D162899A4206D00B4B2E
:1027900040F255320C490B4804F058FC236833B121
:1027A000064B40F256320949064804F04FFC2A898C
:1027B000238925601344238170BD00BFB4820008C3
:1027C000B284000814800008E7840008148500081B
:1027D0002DE9F84F0C46054620B119B102890B8945
:1027E0009A420AD2364B40F2BD323649364804F09E
:1027F0002DFC6FF00F00BDE8F88F4FF0000BDFF8F5
:10280000C080DFF8D4A05F46DFF8BC906E89638992
:10281000F61B6868A3EB0B03616838449E42594479
:10282000ACBF9EB2B6B23744324604F0FCFB6B89B3
:10283000BFB25E44BB421FFA86FB06D2434640F25B
:10284000CD325146484604F001FC63895B4506D20F
:10285000434640F2CE321D49484604F0F7FB6389F7
:102860005B456B899CBF24684FF0000BBB4208D1CD
:102870002D682DB914B3124B4FF476721449B5E795
:1028800000277CB1628923899A420BD123684BB11E
:102890000B4B40F2DE320F490B4804F0D7FB6FF0D0
:1028A0000500A8E76A892B899A4205D12B681BB1DC
:1028B000034B40F2E332EEE7002CA7D120469AE723
:1028C000B48200085B85000814800008A285000817
:1028D000BD850008CA8500088B8500082DE9F041F8
:1028E0000F469046064650B935461B4B40F2FE3225
:1028F0001A491B4804F0AAFB2846BDE8F08141BBF9
:10290000154B40F2FF3217493D46154804F09EFB37
:10291000F2E7728953B1934208D39B1A9BB236688F
:10292000B8F1000FE8D0002EF3D1E5E7D21A7168B4
:10293000781994B21944444528BF44462246254498
:10294000A8EB040404F06FFBADB200231FFA84F877
:10295000E5E70025E4E700BFB4820008F48500083D
:10296000148000081386000810B5044630B9134BD4
:1029700040F24D121249134804F068FB237D042BEA
:1029800003D0072B0CD0032B08D1204602F0A8F867
:1029900060B905232375204602F0FAF8002010BD27
:1029A000204602F09DF808B90923F3E7431CF6D14D
:1029B000A37E43F00803A376F0E700BFC7860008B4
:1029C000F6860008148000087047000038B5018DB5
:1029D0000446C36A628E456AC81AB2F5866F2844F7
:1029E00094BF821AA0F58662002A01DB618538BD9A
:1029F000EA1A002A02DD00206085F8E75D1BB5F5C4
:102A0000803F06D3044B4FF442720449044804F05B
:102A10001DFB65850020EAE7C78600084C87000893
:102A20001480000838B5037D04460D46012B06D1FD
:102A3000174B4FF448721749174804F007FB218DD4
:102A4000294489B2B1F5066F218511D94FF4066387
:102A500023852046FFF7BAFFB0F5067F17DBA37E7C
:102A6000204643F00203A376BDE8384002F090B858
:102A70000029EED1237D072BE8D0092BE6D0044BAB
:102A800040F22D320549044804F0E0FAE1E738BD90
:102A9000C786000866870008148000088C87000835
:102AA00010B5044648B1406808B1FFF789FC2146DB
:102AB0000320BDE81040FFF70FBB10BD10B500B9F3
:102AC00010BD0468FFF7ECFF2046F8E738B5044670
:102AD0000320FFF7E5FA054660B120462B4604F1D6
:102AE000100250F8041B904243F8041BF9D16868A7
:102AF000FFF720FE284638BD38B5037D0446012B7C
:102B000019D90A2B17D0406F18B1FFF759FC0023D1
:102B10006367206F0025FFF7D1FF4FF6FF73A06EAC
:102B200023862567FFF7CAFFE06EFFF7C7FFA4F80B
:102B30006450C4E91A5538BD2DE9F04FB14E85B047
:102B4000DFF8F0A2336801333360AF4B1A78029399
:102B500001321A70AD4F4FF00008DFF8DC923C688C
:102B60006CB9AB4FDFF8D0823D68DFF8D0A2DFF858
:102B7000A892002D40F0858105B0BDE8F08F237D3F
:102B800033B94B464FF47C72A249A34804F05EFA75
:102B9000237D012B06D14B4640F2F1329F499E48DE
:102BA00004F054FA237D0A2B06D14B4640F2F23250
:102BB0009B49994804F04AFA029B627F1B789A422B
:102BC00004D1E5684446A0462C46C9E7227D6377D8
:102BD000022A94F8421040F09E80052900F2E68017
:102BE00094F895B0BBF1000F00F0A8808D4894F8E0
:102BF000943083449BF80F2093423CBF013384F808
:102C0000943094F89430934280F087804FF0000B1A
:102C1000237D062B0BD1A27ED20608D53268216A0D
:102C2000521A282A84BF0BF1010B5FFA8BFB257A1D
:102C300015F0080519D0042B02D0072B40F0CB80EB
:102C4000D4F890504FF4FA70316805F52422236AC5
:102C500002F6B842C91AB2FBF0F2914240F2A980E2
:102C60000BF1010B01255FFA8BFB206F68B1336814
:102C7000226A9A1AB4F9403003EB4303B2EB430FD4
:102C800003D3FFF71BFF00232367237D032B40F0B3
:102C9000A4803368226A9B1A282B03D8BBF1000F4B
:102CA00000F0CE802046D4F88CB0FFF725FF3B68BB
:102CB000B8F1000F00F09980A34206D14B4640F2D4
:102CC00089425949544804F0C1F9E368C8F80C3006
:102CD0004DB1238B22460193E38A0093231D616A41
:102CE000E06C02F0CDF8236921460120E5680393EA
:102CF000FFF7F2F900228AF80020BBF1000F04D0A0
:102D0000039B6FF00C011846D8479AF80030002B4F
:102D10003FF458AF1EE70B2960E7204602F0A0F908
:102D200000287FF473AF94F8953084F89400062B54
:102D30003FF66CAF013384F8953067E7B4F9303073
:102D4000002BA4BF01332386E36E002B3FF45EAF5C
:102D5000B4F93000B4F940309842FFF657AF022A78
:102D60000BD0B4F93C20B4F93E3003EBE2032D4A1A
:102D70000A44D27D9340A4F840300023B4F84820A0
:102D8000618E20462386B4F85C30A4F84810934244
:102D900028BF13464A005B0892B2A4F84A30934217
:102DA00038BFA4F84A2002F0C5F831E74FF0010B14
:102DB0002EE794F896301D4A02FB0353B3FBF0F361
:102DC000994208D9204602F021F920B994F89630AA
:102DD000013384F89630002547E7092B7FF45EAF76
:102DE0003368226A9B1AF02B57E7A34206D04B4662
:102DF00040F28D420E49084804F028F9E3683B6030
:102E000066E700BF60370024E10000245C3700243F
:102E10006C3700243F880008148000086988000887
:102E200093880008387F0008C0880008F824010053
:102E3000EB88000858370024C78600081589000869
:102E4000E37E227F0133E568DBB29A42E3763FF608
:102E5000BAAED4F8883084F81BB08AF800B073B1E9
:102E60002146206998479AF80030002B7FF472AE13
:102E700000287FF4A8AE204601F08AFEA3E658465B
:102E8000F1E72B7D0A2B06D0434640F2BD42514666
:102E9000484604F0DBF833682A6A9B1AF02B02D804
:102EA0002C46ED6865E62846FFF726FE3B6894B1A0
:102EB000AB4206D1434640F2CB420D49484604F0AE
:102EC000C5F8EB68E360D5F80CB029460120FFF7A0
:102ED00003F95D464DE6AB4206D0434640F2CF4291
:102EE0000449484604F0B2F8EB683B60EBE700BFEA
:102EF000448900086B89000803688B4210B50C46B2
:102F000037D1CB68036000232046E360FFF7F4FD70
:102F1000237D0A2B0AD0012B08D0A37EDA0705D522
:102F200043F002032046A37601F032FE237D012BFD
:102F30001AD0A36E33B1134B40F2537212491348A7
:102F400004F084F8E36E33B10E4B40F25472104932
:102F50000E4804F07BF8236F33B10A4B40F25672EF
:102F60000C490A4804F072F800232375E38210BD6F
:102F70001346002BC7D0DA68A242F9D1E268DA60C2
:102F8000C1E700BFC78600089189000814800008C7
:102F9000A9890008C289000837B5037D04460029C5
:102FA00049D0042B01D0072B45D1626F1AB9228D6D
:102FB000B2F5066F3FD0A37EDB0606D43F4B40F24E
:102FC0000F123F493F4804F041F8238B2246616AC3
:102FD0000193E38AE06C0093231D01F051FF20462A
:102FE000FFF78AFD384A1368A34215D1E3681360DE
:102FF00000230122E360354B1A70237D042B13D18B
:103000000A232375324B1A681C60E26002F0D4F880
:10301000002003B030BD1346002BE9D0DA68A2428D
:10302000F9D1E268DA60E3E72A4B1B68A34217D1C3
:1030300001F024FCECE7012B20D007D3022B33D086
:10304000204603B0BDE83040FFF78EBCE38A3BB1B9
:10305000214A1368A34209D1E36813600023E360A7
:1030600021460120FFF738F8D2E71346002BF5D0B0
:10307000DA68A242F9D1E268DA60EFE71749002086
:1030800051F8232012684AB90133042BF8D12146A4
:103090001348FFF731FF21460220E3E7956FAC426A
:1030A00008BF9067D268EEE721460748FFF724FF84
:1030B0000120064B21461870D4E700BFC7860008E0
:1030C000D9890008148000085C3700245837002490
:1030D0006C3700247037002468370024387F0008DC
:1030E00064370024037D0121012B1EBF837E43F042
:1030F00010038376FFF750BF10B5084614463AB167
:103100001189FFF78FFC2046FFF75AF9002010BD08
:10311000002BFBD1BDE81040FFF7E4BFF8B5466FC8
:103120000023D0F880500446777B4367DDB1014629
:1031300032460069A8470546E0B9BB0611D5238D84
:10314000D4F88060B3F5066F1CBF0133238546B108
:103150000023214620691A46B0470D3001D16FF097
:103160000C052846F8BD01462B4632462846FFF797
:10317000C3FFE0E710F10D05F1D066676FF00405BD
:10318000EFE700002DE9F8431B4D1C4F2B781C4E38
:1031900001332B703C684FF000080CB9BDE8F88390
:1031A0002B78627F9A4224D06377A37ED90709D512
:1031B00043F002032046A37601F0EAFCA37E23F04D
:1031C0000303A376A37E1A0705D523F00803204640
:1031D000A376FFF7C9FB636FD4F80C903BB1204690
:1031E00086F80080FFF79AFF3378002BD2D14C4647
:1031F000D3E7D4F80C90FAE7E10000245C37002410
:103200005837002408B5FFF7BDFF064A537801334D
:10321000DBB25370DB0703D5BDE80840FFF78CBC79
:1032200008BD00BFE1000024037D012B2DE9F34719
:1032300004460E4606D1304B4FF4F0722F49304809
:1032400003F004FF237D0A2B0AD121462D48FFF706
:1032500053FE2146012002B0BDE8F047FEF73CBF17
:10326000D4F84C90D4F824A0D4F88C70D4F8108002
:10327000E58A9BB93DB1244A1368A34206D1E368AD
:1032800013600025E5602E460FE01346002BF8D0B2
:10329000DA68A242F9D1E268DA60F2E721461B4817
:1032A000FFF72AFE1A4B01221A70E06E08B1FFF7F1
:1032B00005FCA06E08B1FFF701FC206F08B1FFF715
:1032C000FDFB46B1238B224651464846CDE90053CB
:1032D000231D01F0D5FD21460120FEF7FDFE3FB183
:1032E0006FF00C0140463B4602B0BDE8F04718477E
:1032F00002B0BDE8F08700BFC7860008F289000869
:10330000148000086C370024683700245C370024E0
:10331000583700240121FFF787BF38B5044601B9AB
:1033200038BD0A682368CD689A4202D10846FFF783
:10333000F1FF2946F3E700000C4B30B41968002474
:103340000B4B22461D6821B972B1104630BCFFF705
:103350006BBF0B7D834205D10B6AEB1AA34224BFDE
:103360001C460A46C968EEE730BC70475C3700244B
:1033700060370024F8B505460120FEF791FE394C70
:10338000034690BB384A26681268002A54D113B10C
:103390001846FFF7BFFF0120FEF782FE034620BB61
:1033A0000920FFF7C9FF0120FEF77AFE0346E0B9C6
:1033B0000820FFF7C1FF0120FEF772FE0346A0B907
:1033C00015F0800F294AD4F800C01E460CBF2846CD
:1033D0007F201268002A37D113B11846FFF79AFFF1
:1033E0000120FEF75DFE034620B398220021184617
:1033F00003F024FE1E494FF4866203468162FF21DA
:10340000A0F8602081720621A0F84A20A0F84010A0
:10341000C1871849184A01630121C0F88020A0F82B
:1034200048102168154A0162154945750978C0F8A8
:10343000902041771846F8BD116A711A814224BF65
:1034400013460846D268A0E7577D874207D8116A1D
:10345000ACEB0101B14222BF38460E461346D2689A
:10346000B8E700BF603700246C3700245C370024C5
:1034700060086008FFFF1802F930000800DD6D00E9
:10348000E1000024034B044A586812681044586055
:10349000704700BF080000246037002410B50446C0
:1034A000084602F037FC30B1438C23B1283B9BB275
:1034B0009C4228BF1C46204610BD000038B50D4672
:1034C000044680B1036873B10C4B1968FFF725FF00
:1034D0000B4B20461968FFF720FF25B12B6813B16D
:1034E000084B1B6803B938BD18682168DA68884240
:1034F00004BF296819601346F4E700BF5C37002455
:103500006837002464370024F8B5C36805460C46C4
:103510009889FEF7A9FBC20714D4184EE7683068F3
:103520002B897968228903440A449A1A002A0FDAFF
:103530005B1A002B0ADD091A686889B22981FFF736
:1035400081F803E020460024FFF7B8FA2C60F8BDAC
:10355000B889FEF789FBC30707D5EB6801209F896F
:10356000FEF782FBEB683843988127682046FFF717
:1035700097FA3C46002FD1D1E8E700BFE4000024D1
:10358000037D032B2DE9F14F044606D87D4B4FF404
:1035900081627D497D4803F059FD7D4D2B79DB0625
:1035A00040F157812968B4F85C20AB68D4E9146015
:1035B000771A002F0ADB8E4202D1C61A002E05DBD5
:1035C000984218D1EE68F689964214D9EE68B4F89C
:1035D0005EC0F689B7B2A4F85C60BC45C4E91413B8
:1035E00038BFA4F85E6094F895108FBB19B94FF4FA
:1035F0008071A4F89410666C991B002937DC298A25
:1036000089BBB4F85C100244676D394491422AD1F9
:10361000B4F93020002A26DB9E4224D194F84330AE
:10362000FF2B1CBF013384F8433094F84330032B45
:1036300014D9B4F84820638E13449BB29A4201D245
:10364000A4F848304F4FDFF85091DFF84081F3E0A5
:103650000029D0D0002184F89510CCE7F2D1204683
:1036600001F0ADFCEEE7002384F84330EAE7E26CBA
:103670009A1A002A00F38280A27E0021B4F93C004D
:1036800057076364237D48BF22F0040284F8421088
:1036900084F8431042BFA276B4F84A20A4F8482028
:1036A000032BE28F02EBE002A4F840200FD9B4F81C
:1036B0004820B4F84A10638E91429CBF5B4393FB51
:1036C000F2F313449BB29A4201D2A4F848302D4F32
:1036D000DFF8C490DFF8B48043E0DB685868FEF799
:1036E000C6FAE36E82461E89DB689889FEF7BCFA4B
:1036F000AB6810F00300A6EB030618BF0120564488
:103700000644002E30DCE66EB4F862A033687068C0
:10371000E366FFF707F8824506D23B4640F29E4239
:103720004946404603F092FC7068FEF7FBFFB4F890
:1037300062306A8A181A33891344A4F8620030464A
:103740006B82FFF7ADF9B4F8623053B1E36E43B961
:10375000A36E33B93B4640F2A7420E49404603F000
:1037600075FCE36E002BB8D1E26E002322B94FF650
:10377000FF722286E37665E72386FBE7204601F0A9
:10378000D2F95FE7AD8A0008DF8A000814800008DC
:10379000E4000024208B0008F88A0008DB68AE688B
:1037A0005868FEF764FAA36E8246B3F808B0DB6887
:1037B000A6EB0B069889FEF757FA10F00300A6EB6C
:1037C0000A0618BF0120361A002E38DBAB68E26CFF
:1037D0009B1A002B33DCA66E3368A3660BB9A4F8E2
:1037E0006430B4F862A07068FEF79CFF824506D290
:1037F0003B4640F2D5424946404603F027FC7068FC
:10380000FEF790FFB4F862306A8A181A33891344BD
:10381000A4F8620030466B82FFF742F9B4F86230D8
:1038200053B1E36E43B9A36E33B93B4640F2DD4278
:10383000A749404603F00AFCA36E002BAED1B4F8B2
:1038400060306A8A1344626BA4F86030002A40F04A
:103850000181288A626A2B68002800F0E082217DBD
:10386000062900F2DC82A2EB0308B8F1010F00F197
:103870002781C3F10101091A1144002900F32081B5
:10388000AE69474636B9934B40F23C529249934851
:1038900003F0DCFB47F6FE73984506DD8D4B40F2E6
:1038A0003D528F498D4803F0D1FBA8691FFA88F972
:1038B0004389434580F2F8800389434506DA854B06
:1038C00040F23F528749854803F0C0FBAB690022B4
:1038D0001989A1EB090189B27389BB42C0F2DF806B
:1038E0007942304609B2FEF765FD30B1794B40F2BE
:1038F0004C527D49794803F0A9FBA98B2B68626A79
:103900000B442A609B1AAB832B6A5A602968626A4F
:103910008B1A002BC0F27D824B1C208D9B1A1B1A28
:10392000002B00F37682914240F0A8812B6AAE8B87
:103930009889FEF799F910F00300238D18BF012034
:10394000304480B2834228823DD22B6A9889FEF7A8
:103950008BF9C6070DD52B6A9E89304626F47C5616
:10396000FEF782F900F03E00FEF77EF92B6A06436F
:103970009E81238DAB832B6A9889FEF775F98007AA
:10398000A86942BFAB8B03F1FF33AB83A98BFEF772
:1039900059FE2B6AAE8B9889FEF766F910F003008A
:1039A0002B6818BF0120626A304480B22882184414
:1039B000238D1344984206D0464B40F27F524B4928
:1039C000464803F043FB236F002B00F09C802B6ADA
:1039D0009889FEF749F9C10700F19280266F28689F
:1039E0002B8A0344002E33D0F76831897A6811445A
:1039F000591A002980F2B4809B1A002B28DD2B6A0B
:103A0000121AAA839889FEF72FF98707A86942BF7F
:103A1000AB8B03F1FF33AB83A98BFEF713FE2B6A4D
:103A2000AF8B9889FEF720F910F003002B6818BFC0
:103A30000120384480B228821844F3685B689842B9
:103A400006D0244B40F2AF522949244803F0FEFA35
:103A5000266758E0A36BA9685B1A002BBFF6F9AE86
:103A6000244BB4F93C001968891AB4F93E20A1EB43
:103A7000E001A2EBA20289B20BB20844002B00B213
:103A8000B8BF4942A087B8BF0BB213449BB2E387CB
:103A900003EBE003A4F8403000236363D9E63181EF
:103AA000FF1A7281366817E7C9F1000109B2FEF703
:103AB00081FC00283FF421AF064B40F2515218E739
:103AC0009B1A002BBEBFA37E43F00203A3761DE723
:103AD000208B0008AD8A0008408B00081480000885
:103AE000508B00085F8B00086F8B0008828B0008EA
:103AF000B98B00086037002403682367FEF7D0FF06
:103B0000206F0028F8D12A8A2B6813446362238D22
:103B1000934206D2844B40F2B9528449844803F060
:103B200095FA238D20462A8A9B1A2385FEF74EFF9D
:103B3000AB691A8912B16B620023AB612B6A988959
:103B4000FEF792F8C60705D595F8283043F0200314
:103B500085F82830744FDFF8E081DFF8D49176E003
:103B6000B889FEF781F8C20717D52B6A9889FEF746
:103B70007BF8830711D42B6A01209F89FEF774F824
:103B80002B6A3843AF8B80B29881FEF76DF810F046
:103B9000030018BF012007442F8237683046FEF724
:103BA0007FFF3E461BE72B609089B6F808A0FEF722
:103BB0005BF8636A10F00300B6F808B09A4418BFC7
:103BC0000120F3685044B4F828A060629889FEF799
:103BD0004BF810F0030018BF01205844824506D26C
:103BE0003B4640F2DE524146484603F02FFAF36866
:103BF000B6F808A09889FEF737F810F00300238D77
:103C000018BF01205044181A20852046FEF7DEFE1A
:103C100071680B892BB1686A40B3FEF79FFD0023E2
:103C20007360F3689889FEF71FF8C0070AD595F806
:103C3000283043F0200385F82830237D042B04BF6F
:103C400007232375336830462367FEF729FF266F65
:103C500026B1F268616A53688B42A4D0A37ED9076B
:103C600006D523F0010343F0020303E06962D6E7BF
:103C700043F00103A37601B0BDE8F08F204600F0C9
:103C800052FF266F26B92B48FEF720FF2067F2E788
:103C90002B68002703F1FF3E03F1010CF068426836
:103CA0009A4214D1AA8B33899A42E4D92148FEF76B
:103CB0000DFF0028DFD047B13860314601B0BDE8C4
:103CC000F04FFFF721BC0E46E8E72067F5E74FB954
:103CD000991A002932DA1748FEF7F8FE0028CAD0F0
:103CE0002067EAE7F9684968AEEB0101002925DBA6
:103CF000ACEB0201002921DC0E48FEF7E7FE04468A
:103D00000028B8D0FB6829685A683B8913445B1ABD
:103D1000002B05DD891A786889B23981FEF792FC9B
:103D20003C6031462046C9E7AD8A0008F48B0008A4
:103D300014800008F8000024138C0008316837460E
:103D40000029C0D19B1A002B95DD8089FDF78CFFDF
:103D5000C20790D43848FEF7B9FE306000288AD0F8
:103D6000F36829685A68338913445B1A002B05DD10
:103D7000891A706889B23181FEF764FC2A682B8A3F
:103D80001344626A9B1A228D9B1A002B7FF773AF34
:103D90003368DB689889FDF767FFC3070FD5336881
:103DA000DB689F89384627F47C57FDF75DFF00F0FC
:103DB0003E00FDF759FF33680743DB689F812A689F
:103DC000218D3368891A626A5868114489B2198151
:103DD000FEF738FC33681E89DB689889FDF744FFDD
:103DE00010F003002B6818BF0120626A304480B2D3
:103DF00028821844238D134498423FF43CAF0F4B64
:103E000040F27B620E490F4801B0BDE8F04F03F06D
:103E10001DB9204601B0BDE8F04F00F084BE991AEC
:103E2000002906DB01339B1A228D9B1A002B7FF79A
:103E300022AFA37E17E700BFF8000024AD8A000878
:103E4000828B0008148000080A4A138ED06A591C1D
:103E500030B589B2154610B1548E9C4204D9EA6837
:103E600029861344187D30BD1B1B1186DBB2C05C54
:103E7000F9E700BFE400002470B5194D0646AB8E8B
:103E80002BB100232B86AC8E2B8EA34200D370BDAA
:103E9000FFF7DAFF0128F6D0F9D3022817D1FFF790
:103EA000D3FF0428F3D12B8E0133A342EFDAFFF7BF
:103EB000CBFF000284B2FFF7C7FF204380B2431E4E
:103EC000B3F5067F28BF4FF406703080DBE7FFF7BD
:103ED000BBFF0128DBD92B8E023B18442886D2E792
:103EE000E40000240D4B10B5044693F8280010F0B0
:103EF000100012D0A37EDB0606D4D4F88C301BB1A0
:103F00006FF00E012069984721460548FEF7F4FF3F
:103F100001202146FEF7E0F8012010BDE400002456
:103F20005C3700242DE9F74F43680646934DEB605C
:103F30004389132B40F28481914F3968B8467869E0
:103F400002F05FF80446002840F07A817B6903F0B4
:103F5000F003E02B00F07481EB689889FDF784FE94
:103F6000810A01F0FC01132940F26A8189B2338988
:103F70008B42C0F06581A1F114037289EC629BB29F
:103F80008A42AB8641D3494230466B86FEF712FA2D
:103F9000EC684FF000097B4F2088FDF765FE20801C
:103FA000EC68DFF8E8A16088FDF75EFE6080EC68F1
:103FB000DFF8E0B16068FDF75AFE6060EC682860E9
:103FC000A068FDF754FEA060EC68A860E089FDF7EA
:103FD0004BFEEB68E0819889FDF746FE3C68C0B275
:103FE00000F03F0310F003002B7118BF012033894C
:103FF00018442882002C41D1634BDFF890B11C6833
:10400000DFF8B4A1DFF88C9121E133682BB95F4B65
:10401000B2225F495F4803F019F86FF01301304690
:10402000FEF7C8F97189AC8E30466986641A494238
:1040300009B2FEF7BFF93068A4B24389A342C0F0C9
:10404000FF806142436809B2EB62FEF7B3F933893E
:104050001C1B738934812BB14C4BCF224E494D48E8
:1040600002F0F4FF336832891B899A4290D0474BA3
:10407000D0224A49474802F0E9FF89E7237D2BB95E
:104080005346E2224649584602F0E0FF237D0A2BC0
:1040900005D15346E3224349584602F0D7FF237D1A
:1040A000012B05D15346E4223F49584602F0CEFF8A
:1040B000EA68218B13889942E3685CD1E18A5288CF
:1040C000914258D16168D8F81020914253D12168AB
:1040D000D8F8142091424ED1A34240F0C1832B4B1B
:1040E000EC2232492B4802F0B1FFB9F1000F05D0A4
:1040F000E368C9F80C303B683C60E360E368A342C6
:1041000005D1224BF4222A49224802F09FFF32892E
:104110000023AE61AA83EA686B6185F828306B8260
:10412000C5E908232B791A0703D5737B43F00103F4
:104130007373636F1F4E002B00F014812046FEF74F
:10414000EDFF0D3007D0636F002B00F00B812B8A41
:10415000002B00F00781638D13B9204600F0E3FCCB
:104160000024A86934606C6210B1FEF729F9AC61D3
:1041700003B0BDE8F08FA1461C463BE7E4000024F5
:10418000340200245C3700246C370024AD8A000818
:10419000388C000814800008488C0008548C0008F3
:1041A000738C00089A8C0008C48C0008EB8C000803
:1041B000168D000870370024408D0008237D0A2BDF
:1041C00005D05B46FE225146484602F03FFFEB68B1
:1041D000228B1888904239D1E18A5A888A4235D197
:1041E0006168D8F81030994230D12168D8F814307D
:1041F00099422BD12B795F0722D499072F8A12D5A8
:104200002968636ACB1A13D4B4F828C0A3EB0C0353
:10421000002B0DDC874B3944CDE900201A1DA8681E
:1042200000F02EFE0CE0D80742BF834B1B682362D0
:1042300037B1A37E43F00203A376204600F0A8FC2A
:10424000304603B0BDE8F04FFEF7BAB8E468002C82
:10425000B4D17A4BEA68D3F800C0D8F814E0E1464C
:10426000B9F1000F0FD19089FDF7FEFC4307E7D4A9
:10427000EB68288A1A88296801925B8801440093B8
:104280006C4B1A1DCBE7B9F816005188814207D153
:10429000D9F80010714500F0CA82002900F0C782E9
:1042A0004C46D9F80C90DBE79A07C9D599F8150068
:1042B000FFF760F8044650B9D9F81830002BBFD08A
:1042C00001464FF0FF32D9F810009847B8E7D8F808
:1042D0001430EA680360D8F810304360B9F816303B
:1042E000C3821378527843EA0223038303230375BE
:1042F0002B6801334362C362FFF7C4F82B68606523
:10430000013BE06460642365D9F81030A065236147
:10431000C4F8789099F8083003F00C0323723B68D6
:104320003C60E36000F048FF454B012204F132009D
:104330001A70FFF7A1FDEB68211D608EDB89A4F8E0
:104340005C30A4F85E30FFF7A9F8122160862046A1
:1043500000F036FB00283FF470AF51462046FEF7D0
:1043600063FF6DE795F80480346018F0040F3BD0CC
:10437000217D022922D1E26CAB689A4209D195F8DD
:10438000283043F0080385F82830A37E23F001038A
:10439000A37695F82830180740F1E881D4F88C30DE
:1043A0001BB16FF00D012069984721462548FEF7A3
:1043B000A3FD21460120FDF78FFED1E6626A2B683E
:1043C0009A4207D09B1AE4D4228D9B1A002BE0DC82
:1043D000A37E11E00029D2D11B4B40F2E7221B49FA
:1043E0001B4802F033FECAE718F00209A37E06D08C
:1043F000227D023A012A02D943F00203C8E7DB0614
:1044000004F132005EBF0C4B1B682362002384F86A
:104410009630FFF731FD237D023B072BB9D8DFE84B
:1044200013F019009700FD0001014801FD00610132
:104430007E0100BF4402002460370024643700245A
:10444000583700245C370024AD8A00086D8D0008C1
:104450001480000808F01203122B5DD1626CAB6867
:1044600001329A4258D12B686264591CEA68013BB8
:10447000608E6162E162D28923650423A4F85C2026
:10448000A4F85E20E1182375FFF708F841F21C122A
:10449000430060868000934238BF1346834228BFA2
:1044A0000346A4F84830B4F8623033B9A74B40F261
:1044B0001A32A749A74802F0C9FDB4F86230E76E86
:1044C000013BA4F86230FFB9A76E37B99F4B40F2A9
:1044D0002232A1499F4802F0B9FD3B68A3663846E5
:1044E000FEF7DEFAE36E93B94FF6FF732386D4F836
:1044F0008430002B3FF46CAF00222146206998479E
:104500000D307FF465AF2BE63B68E366E7E70023F9
:10451000238684F84230EAE718F0100F3FF439AFF1
:10452000EB68288A1A88296801925B880144A86888
:1045300000938A4B1A1D00F0A3FC94F84230052B1F
:104540003FF627AF00232046238600F0F3FC20E748
:1045500018F0100F54D0636CA868DB43C34242D4F8
:10456000E36CC31A002B3EDC04232375A36F43B115
:104570009B6933B9754B40F251327949754802F065
:1045800065FDA36F1BB92046FEF7C4FEE8E59B69F5
:10459000002BF8D0002221462069984718B10D3031
:1045A0003FF4DEADEFE72046FEF7EAFF6B8A0BB182
:1045B000013B6B82628E41F21C11530092008B42D0
:1045C00038BF0B46934228BF1346A4F8483095F8ED
:1045D000283098067FF5DDAEA37E43F00203A37674
:1045E00007232375D5E6EB682F8A1A88296801927C
:1045F0005B8839440093594B1A1D00F041FCC8E612
:10460000B9F1000F3FF4C5AE636A2A68013B9342DB
:104610007FF4BFAE204600F0A9FCBAE62046FEF7C4
:10462000AFFFD4E72046FEF7ABFF95F8283013F034
:10463000200F2B792FD013F0100FA37E26D0E16C22
:10464000AA68914222D1A26E02BB43F00203204627
:10465000A376FEF751FA3B689C4209D1E3683B60C0
:1046600008E0DA68944202D1E268DA6002E01346B8
:10467000002BF6D13B4B01221A700A2323753A4BCB
:104680001A681C60E26000F097FD82E643F00203C6
:10469000A3760823A5E7D9067FF57BAEE26CAB686D
:1046A0009A427FF476AEA36E002B7FF472AE06239F
:1046B00097E72046FEF764FF95F828309A067FF5C5
:1046C00068AEA37E204643F00203A376FEF714FAF9
:1046D0003B689C42C2D0002BCCD0DA689442C3D055
:1046E0001346F8E72046FEF74BFF2B79DB067FF5F4
:1046F00050AEE26CAB689A427FF44BAEA36E002BD7
:104700007FF447AE2046FEF7F7F93B689C42A5D000
:10471000002BAFD0DA689442A6D01346F8E72046C3
:10472000FEF72EFF2B79DF067FF533AEE26CAB6828
:104730009A427FF42EAEA36E002B7FF42AAE95F83A
:10474000283043F0100385F8283022E6AD8A0008AF
:104750008D8D000814800008A38D000844020024F9
:10476000B68D0008583700246C3700246A8A1AB1C5
:10477000E36FDBB900236B822046FFF7B3FB002811
:104780007FF4EEAC6B6A23B3636F33B1374B4FF4F6
:10479000D2723749374802F059FCA37E6A6A13F097
:1047A000100309D01046FDF70BFEECE62146206908
:1047B00098470D30DED1D3E4D4F88070FFB12146A4
:1047C0002069B84710F10D0F3FF4CAAC08B16B6A0D
:1047D000636795F82830990605D5636FABB15A7BAE
:1047E00042F020025A73002320463360FFF77AFB21
:1047F00000287FF4B5AC204600F0CAF9B0E43B468F
:1048000021463846FEF778FCDCE7238DD4F880702B
:10481000B3F5066F1CBF01332385002FE3D00023BF
:10482000214620691A46B8470D30DCD198E434B1EE
:10483000D9F80C10C3F80090E160C9F80CC02B79CE
:1048400059073FF5FDAC13F0100A3FF42DAD138866
:104850002C8A2968CDE90003074B21441A1DDEE4A8
:10486000B9F1000F7FF444AC51E400BFAD8A0008F9
:10487000D48D00081480000844020024034A92F8F2
:10488000283043F0100382F828307047E4000024F9
:104890002DE9F84F9DF828B0814603200E464FEAD7
:1048A0008B0790469A46FDF7FBFBFDB2044628B9FC
:1048B0003046FDF785FD2046BDE8F88F002380F8DF
:1048C0000AB0BFB2C0E900363389BB4205D21B4BE8
:1048D000BA221B491B4802F0B9FB33891421304628
:1048E000DF1B2781FDF766FD074620B12046002427
:1048F000FEF7D6F8DFE76368B9F816005E68E66091
:10490000FDF7B2F93080E668B9F81800FDF7ACF9A8
:104910007080E6685046FDF7AAF97060A802E66864
:1049200000F5A04000F4704040EA0800FDF79CF953
:10493000E368B0819F74DF74BDE700BFEE8D0008AF
:10494000358E0008148000081431F8B589B2054688
:10495000174601200022FDF795FD064640B3438926
:10496000132B05D8134B73221349144802F06EFB26
:104970007468E88AFDF778F92080288BFDF774F9D0
:1049800067606080686AFDF772F9A06045F2100008
:10499000FDF76AF9A081688DFDF766F900236A8D3D
:1049A00023746374A374E3746B6AE0811344EB6251
:1049B0003046F8BDEE8D00084A8E000814800008CD
:1049C0002DE9F74311F0030804460E4606D13D4B8E
:1049D00040F21B323C493D4802F038FBB4F86230EB
:1049E000082B0AD9F10708D4A37E4FF0FF3063F0FB
:1049F0007F03A37603B0BDE8F083C6F3400700222F
:104A00004FEA870910464946FDF73CFD0546002858
:104A1000EAD043894B4506D22A4B40F241322C4919
:104A20002A4802F013FB00972946A36D3246204620
:104A3000FFF72EFF05460028D6D0C3689A0706D098
:104A4000204B40F249322349204802F0FFFA2B89DB
:104A500033B11C4B40F24A321F491C4802F0F6FAAF
:104A6000A36E4BBBA5660023A4F86430B8F1000F19
:104A700002D0A36D0133A365F30742BFA37E43F0C9
:104A80002003A3766868FDF74DFEB4F86230184441
:104A900080B2A4F862000028ACD0E06E48B9A46EE1
:104AA000002CA7D1074B40F26D320C49074802F0A9
:104AB000CDFA00209EE713461A68002AFBD11D603C
:104AC000D1E700BFEE8D0008AA900008148000080E
:104AD000FF90000838910008509100087A91000872
:104AE000F8B5846E054634B928460121BDE8F84082
:104AF000FFF766BF1C462368002BFBD1E36898894B
:104B0000FDF7B2F810F00707EED1E36801209E89A7
:104B1000FDF7AAF8E368304398813846AB7E43F04E
:104B20002003AB76F8BD7FB50446C06CFDF79FF857
:104B3000002102462046FFF707FF064640B9A37E44
:104B40006FF0010543F00303A376284604B070BD5F
:104B5000251D284601F0DEF8A0B106220290A37AB6
:104B6000214601923046627A00922A4601F038FAD4
:104B700005463046FDF724FCA37E35B143F0030320
:104B8000A376E2E76FF00305F3E723F00303F7E70B
:104B9000037D012B2DE9F04F044687B006D1A44BCD
:104BA00040F2ED32A349A44802F050FAA34B1B682F
:104BB000A3424FD0B4F84830B4F85C60A56E9E4272
:104BC00028BF1E46A37E990710D52DB9204607B0F1
:104BD000BDE8F04FFFF7A7BFEB685868FDF747F84F
:104BE0002B89626C9B1A1844B042EFD8E76E002FF5
:104BF00033D104F10408404601F08CF881460028C6
:104C000000F03A8123680BB943682360CDB1EB68AB
:104C10005868FDF72CF82B89626C9B1A1844B04237
:104C20006ED9002E6CD0B4F85C30B34268D1E36E1C
:104C3000002B65D194F895301BB94FF48073A4F81C
:104C40009430A36E13B90023A4F86430A37E03F05C
:104C50007F03A3760020E8E01F463B68002BFBD1D2
:104C6000C7E72B68A366237D022B1EBFA37E23F01C
:104C70000303A376EB685868FCF7F9FFE9688346FD
:104C8000B5F808A08889FCF7EFFF10F003000BEBE4
:104C90000A03EA6818BF0120B5F808A01844E36CBD
:104CA0001B1A002BB8BFE0649089FCF7DDFF10F001
:104CB000030018BF012010EB0A0F00F0D980002379
:104CC0002B60E36E13B9E5662F4616E0EB68586873
:104CD000FCF7CDFFFA6882465068FCF7C8FFAAEBE4
:104CE0000000002880F2C28004F16C031A68002AD8
:104CF00040F0AA801A682A601D60A56E002DA2D01F
:104D0000EB685868FCF7B3FF636CC01A2B89184432
:104D1000B04296D8EB689889FCF7A6FF420706D503
:104D2000434B40F246424649434802F08FF9E36E56
:104D3000B3B1A27E12F0440F12D1A36E2BB1196849
:104D400071B91989638E99420AD2B4F860303BB1C7
:104D5000B4F86230082B03D812F0A00F3FF471AF03
:104D6000237D022B09D0EB681020B3F80CA0FCF7D0
:104D70007BFFEA684AEA000090816B68DB89012BBF
:104D80007FF46FAFD5F80CA0606AFCF770FFCAF82B
:104D90000800608DD5F80CA0FCF766FF628D636A91
:104DA000AAF80E001344E362AB7ADB070CD5D5F802
:104DB0000CA041464FF40670FEF770FB40F0017006
:104DC000FCF755FFCAF81400B4F93030002BBCBF13
:104DD00000232386636B3BB91A4AEB68126862634F
:104DE0005868FCF744FFA0636868EA684368418933
:104DF000D31A42609BB2C91A41810189CB1A21465C
:104E000003810023137453740622A37A0192627AF9
:104E1000CDF808900092424601F0E2F800283FF4F5
:104E200020AFA37E63F07F03A37607B0BDE8F08FC9
:104E3000EE8D0008A291000814800008703700244D
:104E4000C891000860370024D26805935068FCF7C9
:104E50000EFFE96882464868FCF709FFAAEB0000EC
:104E6000059B0028BFF646AF1B683FE73D602BE778
:104E70002846FDF715FE40E76FF00300D5E700BFB9
:104E80002DE9F04F85B081460E4690461421002250
:104E900001201F46BDF838B0BDF83CA0FDF7F2FA7E
:104EA000054600283CD04389132B06D81E4B40F200
:104EB0004D521E491E4802F0C9F86C685846FCF76E
:104EC000D3FE20805046FCF7CFFE60804846FCF7BA
:104ED000CEFE606030460026FCF7C9FEA06045F2B9
:104EE0001400FCF7C1FE0823A0813846A373602399
:104EF0002674E3736674A674E67400F00BFF48B181
:104F0000062302903A4641462846CDE90063FF2336
:104F100001F066F8284605B0BDE8F04FFDF750BA3D
:104F200005B0BDE8F08F00BFEE8D00084A8E000886
:104F300014800008C26E10B4AAB111460B6883B980
:104F4000846E0C60C0E91A2390F84230FF2B1CBF1E
:104F5000013380F8423000235DF8044B4363FFF7D0
:104F600017BE1946EAE75DF8044B7047F8B5C56E01
:104F70000446ADB12B6800F16806C366336883B997
:104F800033682B6035602B680BB9A4F8643094F853
:104F90004230FF2B1CBF013384F84230002363638F
:104FA000F8BDDB685868FCF762FEEB680746586896
:104FB000FCF75DFE381A0028E2DA3668DEE7C36ED9
:104FC00010B504460BB3837E5B071ED4FFF7CEFFFC
:104FD000B4F85C20B4F84830934238BF5A08638E66
:104FE00028BF52085900A4F84A208A420B4438BF0F
:104FF000A4F84A10B4F84A201344A4F84830A37E19
:1050000043F00403A3760023238610BD7FB5044636
:10501000C06C0138FCF72BFE002102462046FFF74A
:1050200093FC0546C8B1261D304600F073FE88B1DA
:1050300000220621A37A02902846CDE900212146CC
:10504000324600F0CDFF04462846FDF7B9F9204668
:1050500004B070BD6FF00304F6E74FF0FF34F6E7DD
:105060002DE9FF41C46E064614B9846E002C41D070
:10507000E3689889FCF7F8FD10F00105E368304615
:1050800018BF25895A681CBFB5FA85F56D0985F0EA
:105090000101FFF759FC074600283DD0D0F80480F5
:1050A00065B3B8F80C501120FCF7DEFD25F47C55F3
:1050B000ADB22843A8F80C00E368341D5868FCF72B
:1050C000D6FDF36C01301B1A002BB8BFF0642046EC
:1050D00000F020FEE8B10022062102903846B37AA3
:1050E000CDE900212246314600F07AFF04463846D9
:1050F000FDF766F9204604B0BDE8F081606808F16C
:105100001401228903899B1A01229BB2FDF7E6FB59
:10511000D2E76FF00304EAE74FF0FF34EAE700005C
:105120002DE9F041074606200E461546FCF7B8FF6C
:10513000044638B91C4BD4221C491D48BDE8F04137
:1051400001F084BF01F066FD1A4A13685BB9506034
:1051500018460021384421606060C4E902652BB91B
:105160001460BDE8F0815168401AF2E75968B9420D
:1051700003D9CF1B5F602360F2E71846416862687D
:10518000521A0168626039B14D68AA4201D30846DB
:10519000F4E7AA1A4A6004E0BA4202D95B681F44E5
:1051A000676021600460DCE7DF910008139200086B
:1051B000148000081C010024084B9A6862B9084A50
:1051C000126812B9074A126832B101220649FA2060
:1051D0009A600022FFF7A4BF704700BF1C010024A3
:1051E0005C3700246C370024ED51000808B5FEF749
:1051F00009F8084B1B6813B9074B1B6833B1002231
:105200000649FA20BDE80840FFF78ABF044A9360C8
:1052100008BD00BF5C3700246C370024ED51000846
:105220001C01002438B50A4D4FF47A70094C05F181
:1052300008022146FFF774FF05F1100221464FF4E2
:105240007A70FFF76DFF01F0E5FC034B586038BD45
:10525000887F00085D5200081C01002410B5044638
:1052600043689847034922462068BDE81040FFF78D
:1052700057BF00BF5D5200082DE9F041114C236873
:10528000EBB101F0C7FC66680F4F861B3B780BB192
:10529000FDF744F8216891B14B68B3420FD86268BA
:1052A000F61A06201A440B68D1E90258626023609E
:1052B000FCF712FF002DE9D04046A847E6E7BDE81D
:1052C000F08100BF1C010024543700247047000007
:1052D0004389072B2DE9F04F054685B0894605D84F
:1052E000284605B0BDE8F04FFDF76AB83D4E44686A
:1052F0003168706900F085FE07462088FCF7B4FC31
:10530000804660880024FCF7AFFC374A8246A646F8
:105310001068934603960346D6E904C19BB91CB9AD
:10532000D9F804308B42DBD16FF007012846FDF736
:1053300041F8002834D02D4B40F255122C492D480D
:1053400001F084FECCE75A8A524526D11A6807B389
:105350003AB14E1C05D04A401646D9F808201642EC
:105360001BD11A7C520702D4002C08BF1C469A8A13
:10537000424512D15A680AB162450ED1BEF1000F02
:1053800005D0DA68CBF80030CEF80C20D8601C4687
:10539000CAE7002AE5D08A42E3D09E46DB68BDE733
:1053A00064B1A669002E9BD0CDF800802A46124B2E
:1053B0002146E069B04705B0BDE8F08F002F8FD1DE
:1053C000039B5B6903F0F003E02B89D0039B284625
:1053D0009989083109B2FCF7F0FF0321284600F053
:1053E0008FFC7DE7340200247437002450920008BB
:1053F0007F920008148000084402002410B538B1E0
:1054000003682BB121B10B6813B1064B1B6803B9BC
:1054100010BD1C680268944204BF0A681A60DB6809
:10542000F5E700BF7437002470B51826074C054611
:105430004643A05918B1FCF7C3FF0023A35118231A
:1054400003FB05440023237570BD00BF2801002421
:105450002DE9F3470B9D894692469846074630B999
:105460002C4B4FF48B622C492C4801F0EFFD0022AD
:105470001C210220FDF706F80646002847D0438984
:105480001B2B06D8234B40F264422549234801F0E8
:10549000DDFD7468BDF83400FCF7E6FBE08097F8AA
:1054A0002430062B06D01B4B40F26B421D491B4893
:1054B00001F0CCFDD8F800304A4631463846A360AA
:1054C000B8F80430A3812B68C4F81230AB880025EB
:1054D000E3820A9B1B68C4F80E300C9B1B68257086
:1054E000A3610123E57063700823A3700623237171
:1054F0000423637140F606030093534601F07CF9E0
:105500003046FCF75DFF284602B0BDE8F0874FF05B
:10551000FF30F9E7C1920008F892000814800008F3
:1055200006930008379300082DE9F74F3D4B0A22F8
:1055300004460020019196461146824681468046E7
:1055400094461D46BCF10A0F93F814B029D1BBF163
:10555000000F29D14FFA80FC013018330A28F1D10D
:10556000019B012B5BD1BCF10A0F3CD05FFA8CF69A
:10557000182303FB06531B7D33B12B4B40F28712DC
:105580002A492B4801F062FD24B11823226803FB4D
:1055900006535A60182370B203FB065500236B8232
:1055A00008E0BBF1000FD7D03CB127685E68B74276
:1055B00003D140B203B0BDE8F08FBBF1010F5F8AA9
:1055C0000CD11E6826B14745C6D342B2B846C3E7E0
:1055D0004F45C1D34FFA80FEB946BDE7574524BFBA
:1055E00041B2BA46B8E70A290FD01823CEB25943C0
:1055F0006B5833B10C4B40F26F120E490C4801F05E
:1056000025FD3046FFF710FFB2E7BEF10A0F02D0CA
:105610005FFA8EF6F5E70A2A01D0D6B2F1E74FF02D
:10562000FF30C7E728010024C19200088F930008CB
:105630001480000878930008F8B505460024084E49
:10564000182707FB04631A7D2AB19B68AB4202D17D
:105650002046FFF7E9FE01340A2CF2D1F8BD00BF65
:10566000280100242DE9F047804686B00C4649B950
:10567000454B4FF422724549454801F0E7FC06B01E
:10568000BDE8F08746683388B3F5807F08D1337969
:10569000062B05D17379042B02D17388082B03D014
:1056A0004046FCF78DFEEAE7D6F80E3006F1080713
:1056B0004D680593B36915B19D4262D000254FF046
:1056C000020994F82430062B06D02F4B40F2AB127F
:1056D00030492F4801F0BAFC059800283CD02146FB
:1056E00000F08FFC8246B8BB059B03F0F003E02B73
:1056F00032D0494605A8FFF717FF00282CDB1822F7
:10570000254B4FF0020E02FB00F103EB010C8CF86D
:1057100014E04FF00C0ECCF8084012FB00E23868A1
:1057200003EB020E9850BA88AEF8042053F80190AB
:10573000ACF812A0B9F1000F0ED043F801A04FF45D
:10574000006304F125024946009320463B4601F0E0
:1057500053F84846FCF734FEF388B3F5807F9FD1B9
:10576000002D9DD0022204F125032046039205AAB4
:105770001946CDE90172221D00923A46FFF768FEF4
:105780008EE70125A9469CE7C1920008F89200081F
:1057900014800008F9930008280100241FB5024670
:1057A000012400F125030432CDE9021404490092DA
:1057B00001911946034AFFF74BFE04B010BD00BF2C
:1057C000AE7F0008A87F00082DE9F041154C0025A8
:1057D00002260427A4F10408227B6AB163890133FD
:1057E0009BB2B3F5967F638103D2012A0AD1042BC1
:1057F0000CD92846FFF718FE013518340A2DEBD1D5
:10580000BDE8F081032A08D12773F5E71821206845
:1058100001FB0581FFF7C2FFEEE7042AECD12673F6
:10582000EAE700BF300100242DE9F0431823254D9D
:1058300085B0064603FB0253894614461B7D012BA7
:1058400006D8214B40F2ED222049214801F0FEFB11
:10585000182304EB440106F1250803FB0454C90096
:10586000237D01F10C07022B2F440BD1638AB3F582
:105870008E7F13D9043130462944FFF78FFF08B9D2
:10588000032323754FF40063424649463046009394
:105890003B4600F0B1FF05B0BDE8F083B3F5877F6C
:1058A000F0D3012304313A46304603932944094B8F
:1058B000029141460193331D00934346FFF7C8FD13
:1058C000DDE700BF28010024C19200081D940008F4
:1058D00014800008AE7F00082DE9F3478946804612
:1058E00001461746D9F8000000F08BFB0646002859
:1058F0005BD1D9F8003003F0F002E02A55D0002B3C
:1059000053D001214846FFF70FFE051E50DB3E4CE9
:10591000182303FB05431A7D1AB90126C3F8088032
:105920001E75182303FB05431B7D33B9374B40F22B
:10593000C9323749374801F089FB0EB9002F39D1F8
:1059400049464046FFF72AFFB7BB02B0BDE8F087E3
:10595000FBD13E46DFF8B480DFF8BC90DFF8B4A09E
:10596000728933899A4208D1336833B143464FF480
:105970007B724946504601F069FB337B012B31D1E4
:105980003668002EECD1B8463846FCF7D3FE182313
:1059900003FB05F21E46A05808B1FCF711FD06FBFB
:1059A00005F3002044F80380CFE76FF00F00CCE749
:1059B0002846CAE74FF0FF30182303FB0542127D4B
:1059C000012AC5D90C223946404684F8F05013FB11
:1059D00005234FF400622344009208F1250200F0F1
:1059E0000BFFB2E7002231890220FCF74BFD804615
:1059F00038B13946FCF7ECFE0028C8D04046FCF729
:105A0000DFFC4FF0FF30A0E728010024C19200081E
:105A10004D9400081480000875940008F0B50E46F7
:105A200085B01546044630B93D4B40F21B323D4926
:105A30003D4801F00BFB36B9394B4FF447723B49F7
:105A4000394801F003FB35B9354B40F21D32384976
:105A5000354801F0FBFA2146286800F0D2FA002808
:105A600058D12B6803F0F002E02A1BD10123ADF8D6
:105A700008305E238DF80A306B7803F07F038DF8D1
:105A80000B30AB788DF80C30EB788DF80D3002AB25
:105A90004FF4006231462046009204F1250200F0E6
:105AA000ABFE1EE06268A1685A400A4208D09BB271
:105AB0004FF6A962934203D0E3686BB304F10C057F
:105AC0001C4B182193F8F02001FB0231087D0128BE
:105AD00009D928684968884205D131462046FFF730
