:020000040800F2
:1000000000000824357E0008857E0008857E0008F3
:10001000857E0008857E0008857E000800000000BF
:10002000000000000000000000000000857E0008C5
:10003000857E000800000000857E0008CD7D000858
:10004000857E0008857E0008857E0008857E000884
:10005000857E0008857E0008857E0008857E000874
:10006000857E0008857E0008857E0008857E000864
:10007000857E0008857E0008857E0008857E000854
:10008000857E0008857E0008857E0008857E000844
:10009000857E0008857E0008857E0008857E000834
:1000A000857E0008857E0008857E0008857E000824
:1000B000857E0008857E0008857E0008857E000814
:1000C000857E0008857E0008857E0008857E000804
:1000D000857E0008857E0008857E0008857E0008F4
:1000E000857E0008857E000800000000857E0008EF
:1000F000857E0008857E0008857E0008857E0008D4
:10010000857E0008857E0008857E0008857E0008C3
:10011000857E0008857E0008857E0008857E0008B3
:10012000857E0008857E0008857E0008857E0008A3
:10013000857E0008857E0008857E0008857E000893
:1001400000000000000000000000000000000000AF
:10015000857E0008857E0008857E0008857E000873
:10016000857E0008857E0008857E0008857E000863
:10017000857E0008857E0008857E0008000000005E
:10018000857E0008857E0008857E0008857E000843
:10019000857E0008857E0008857E0008857E000833
:1001A000857E0008857E0008857E0008857E000823
:1001B000857E0008857E0008857E0008857E000813
:1001C000857E0008857E0008857E0008857E000803
:1001D000857E0008857E0008857E0008857E0008F3
:1001E000857E0008857E0008857E0008857E0008E3
:1001F000857E0008857E0008857E0008857E0008D3
:10020000857E0008857E0008857E0008857E0008C2
:10021000857E0008857E0008857E0008857E0008B2
:10022000857E0008857E0008857E000800000000AD
:10023000857E0008857E000800000000857E00089D
:10024000857E0008857E0008857E0008857E000882
:10025000857E0008857E0008857E0008857E000872
:10026000857E0008857E0008857E0008857E000862
:10027000857E0008857E0008857E0008000000005D
:10028000857E000800000000857E00080000000058
:0802900000000000857E00085B
:1002A00010B5054C237833B9044B13B10448AFF3B0
:1002B00000800123237010BD900000240000000086
:1002C000988D000808B5034B1BB103490348AFF3F1
:1002D000008008BD0000000094000024988D0008F4
:1002E00010F8012B11F8013B012A28BF9A42F7D0E0
:1002F000D01A7047034613F8012B002AFBD1181AB5
:1003000001387047000000000000000000000000FD
:1003100001F0FF01102A2BDB10F0070F08D010F8B6
:10032000013B013A8B422DD010F0070F42B3F6D1BA
:10033000F0B441EA012141EA014122F007047FF0D3
:1003400000070023F0E80256083C85EA010586EA2A
:10035000010685FA47F5A3FA87F586FA47F6A5FA66
:1003600087F68EB9EED1F0BC01F0FF0102F0070272
:1003700032B110F8013B013A83EA010313B1F8D11D
:100380000020704701387047002D06BF35460338FE
:10039000073815F0010F07D1013015F4807F02BF37
:1003A000013015F4C03F0130F0BC0138704700BF88
:1003B00030B570B1CC6864B18A6852B10B6943B191
:1003C0000D6849688560C1608361C0E9042400202C
:1003D00030BD4FF0FF30FBE773B50023466804469D
:1003E000019366B1A36998470546A3699847401BE6
:1003F000B0F5FA6FF9D901230025636027E083681F
:1004000003B19847202300252360636901AA1221C4
:100410003046984700281DDB019B03F01F03B342C1
:100420001AD10025266020681F2833D87DB923699A
:100430004FF400422946984700282EDB636901AA41
:1004400029462068984700280ADA6FF004052846F4
:1004500002B070BD6FF004050136202ED5D1E2E761
:10046000A36998470646019B1B0402D4002DB9D00E
:10047000EDE7A3699847801BB0F5FA7F07D8636959
:1004800001AA0021206898470028ECDADDE76FF028
:100490000105E8E76FF00205D9E76FF00305D6E73D
:1004A00070B50E4E05464FF47A730D4A3078B3FBA3
:1004B000F0F31068B0FBF3F000F096F8044650B982
:1004C0000F2D08D8024629464FF0FF3000F05AF8A9
:1004D0002046756070BD0120FCE700BF00000024CD
:1004E0002400002410B5032000F03AF80020FFF7A4
:1004F000D7FF044618B907F057FC204610BD012469
:10050000FBE70000034A044B11681B780B4413609F
:10051000704700BFAC00002400000024014B1868A5
:10052000704700BFAC00002438B50446FFF7F6FF63
:100530000546631C1EBF044B1B78E418FFF7EEFF53
:10054000401BA042FAD338BD00000024034A536880
:1005500023F4600318435060704700BF0004005844
:10056000074A0002D36800F4E06023F4E0631B0450
:100570001B0C43F0BF6343F400330343D360704765
:1005800000ED00E0164B70B5DC684FF0FF36C4F3A9
:100590000224C4F10705231D042D28BF0425062BC2
:1005A00006FA05F38CBF033C0024002821EA03036C
:1005B00003FA04F306FA04F422EA040443EA040307
:1005C0004FEA0313DBB206DB00F1604000F5614047
:1005D00080F8003370BD00F00F00024A1354F9E7B1
:1005E00000ED00E014ED00E00138B0F1807F0AD2A8
:1005F000064BF021064A5860002082F8231007229B
:1006000098601A6070470120704700BF10E000E05A
:1006100000ED00E0BFF35F8F044A536A23F4803398
:1006200053620022024B5A60704700BF00ED00E0A9
:1006300090ED00E0064A40F00100064B5860536A16
:1006400043F480335362BFF34F8FBFF36F8F704714
:1006500000ED00E090ED00E04378124A10B59360A1
:100660000178D9B14368D360C37A047B1B0643EA9F
:1006700004730B43817A43EAC143417B43EA8143DC
:10068000817B43EA4143C17B43EA0143417A43EA28
:100690000123017A43EA4103136110BDD160116166
:1006A000FBE700BF90ED00E08B680A6891F80CC092
:1006B0001A430B7C002B2DE9F04F08BF4FF40023A9
:1006C00085B018BF002391F804E04F7B00934B7C6A
:1006D0008E7B002BCD7B8C7C0CBF4FF40033002332
:1006E00091F81C9001934B6991F81DB01A438B69E6
:1006F00013438A7F002A0CBF4FF4806200220292CB
:10070000CA7F039291F82020002A0268486AD2F832
:1007100000A008BF4FF4807843EA0003C86A2AF0BB
:100720007F4A18BF4FF00008034303982AF47B0A5E
:100730002AF4FE4A2AF07C0A43EA0A0343EACE631B
:1007400043EACC5343EA875343EA465343EA05530B
:1007500043EA044343EA093343EACB2391F828B040
:1007600043EA4023009843EA0B13034301980343F1
:100770000298034343EA08031360CE6B91F83230CA
:1007800091F83870002B536891F8305023F07C5367
:1007900091F831400CBF4FF48030002023F4EF2358
:1007A00023F4FF6323F0070343EA46634E6B3343AE
:1007B0008E6C43EA076343EA85430D6D43EA444385
:1007C00091F854400343486C5360D36823F4877313
:1007D00023F00103034391F8400043EA0023D36070
:1007E00091F84C30002B136F23F0F2030CBF8020E4
:1007F00000201B041B0C43EA06432B43CD6D43EA48
:10080000440391F8614003431367D2F8900091F8D4
:10081000563020F00300034391F8550043EA4003AB
:10082000886DC2F89030D2F8003D23F07203034384
:10083000C2F8003D91F8603091F86210002BD2F8B8
:10084000303D23F07B030CBF402000202B4343EAC4
:10085000041343EAC1030343C2F8303D05B0BDE8C9
:10086000F08F0000026802F58050036823F4F04323
:1008700030B523F002030C680D79234341F20404E0
:1008800003600B7B1059DB0320F4504043EA05332F
:100890008D6820F001002B43034302F5885013516B
:1008A000124B05684C7B2B4043EA04430C6A2343FC
:1008B00041F2041403604B7F087D1B03155943EA82
:1008C0000013086903430A482840034341F2081013
:1008D000135113580C7F23F00043896923F47C13D0
:1008E00043EAC4730B43135030BD00BF00C0FEFF8A
:1008F000EFEFC0FFD0F828C02DE9F04F00EB8C0AD5
:100900009346DAF81830DD68002D02DA0220BDE8DF
:10091000F08F0C688E6814F004072AD02D0C4A6AF8
:10092000D0F800802D0445EA020E4EF48032DA60E1
:10093000D8F8602042F48012C8F86020220718D549
:100940009D68AAB2CD6A42EA05450A6B9D6042F4F1
:1009500040322EF440252A43DA60D8F8642042F46D
:100960008012C8F86420D8F8502042F08062C8F89D
:10097000502014F010080BD09D688A6925F47F552B
:1009800025F03F052A439A60DA6842F08062DA6017
:1009900014F0140E18D0DA6842F04045DD600CF116
:1009A0000105032D88BFACF1030500EB850EDEF8D1
:1009B00018E0DEF80C90B9F1000F5EDA22F0004288
:1009C00042F08042DA60A1E76546D3F808900EF164
:1009D000010E326829F47F591A6029F03F097268C4
:1009E00049EA0209B268C3F8089029F07F5929F44E
:1009F0007C19002A45D016685E60566849EA0646AA
:100A00009E60DE68B8F1000F43D026F4F0080E6A4D
:100A100048EAC648CE694FEA984846F480264FEA2D
:100A2000884848EA0608C3F80C802FB19E6826F46F
:100A300040478E6A3E439E60DE6826F0804747F05E
:100A40002047DF60A70706D5CC6826F0874644F02C
:100A500020443443DC60534E9468ACBB9A68BBF1CD
:100A6000000F00F09C8042F000429A60DA6842F089
:100A70008052DA608562002049E773464FF0010E2C
:100A8000A3E71A715A719A71DA713246C3F8089065
:100A9000B7E726F4FF484E6814F0010F28F07F08EE
:100AA00048EA0606DE601FBF26F440384E6948EA71
:100AB0000606DE60A606B8D5DE6826F040680E6938
:100AC00048EA0606DE60B0E76F1C032F88BFEF1E02
:100AD00000EB87039B69D3F80C80B8F1000F15DA9F
:100AE000DAF81810002296453FF410AFCB680132B7
:100AF00023F00043CB600CF10103032B88BFACF162
:100B0000030300EB83019C468969ECE722680EF140
:100B1000010ED3F808901A6009EA0609626849EAEA
:100B20000209A268C3F8089029F07F5929F47C19BA
:100B3000D2B15568146849EA05455C609D600D684E
:100B4000EC0619D5CC694FEA984844F480244FEA62
:100B5000884844EA0804DC60DC683D4624F08044B0
:100B600044F00044DC6077E71A715A719A71DA71C7
:100B70002246C3F80890E2E728F4FF484C6828F0C2
:100B80007F0848EA0408EC07C3F80C8041BF28F44A
:100B900040384C6948EA0408C3F80C80DCE722F0CE
:100BA000004262E700C0FFFF0AB1032903D9012315
:100BB00043651846704700EB8100C16A0A600A610C
:100BC000CA6842F08070C86023B142F040728B6006
:100BD0004B61CA60CB68002043F00043CB60704794
:100BE00090F85120D2B2102A10B52AD1232341F215
:100BF000041480F851300368196841F0020119604B
:100C0000196841F001011960D3F8001D41F001019C
:100C1000C3F8001D195941F00101195141F208149E
:100C2000195941F00101195103F58B53196841F429
:100C300081711960222380F8512080F85230002001
:100C400010BD0120FCE7F8B50446154629B9436DEF
:100C500043F001036365012027E090F85130102B29
:100C6000F9D10022FFF746FE18B1636D43F002038D
:100C7000F0E7A36A9A1D54F822605A1C032A8ABF1F
:100C8000033BA262A362A26A2368063203F589537A
:100C900054F822201A60FFF741FC0746F268002A48
:100CA00004DB1023002084F85130F8BD236803F5DD
:100CB0008B531968C90409D5626D42F00802626558
:100CC0001B68A365E02384F85130C4E76B1CE6D0B1
:100CD000FFF724FCC01BA84201D8002DDED1636DB4
:100CE00043F0040363651023EDE7F0B5456C7DB96F
:100CF000C46B2A462946052600EB8403DF6AFF6899
:100D0000002F01DB013E05D1002939D100234364C6
:100D100000201EE017F0805F04F101031AD00131BA
:100D2000012908BF2246032B88BFE31E00EB830482
:100D3000E46AE468002C08DB640006D501248464BE
:100D40001C19032C8CBF033B23464164C0E90F32BE
:100D50000120F0BDBF000AD5032B4FF0010188BF71
:100D6000E31E00EB8302D76A22461C46C7E7032B2B
:100D700001F1010188BFE31E00EB8304E76AF4E799
:100D800000EB820300264FF0010C4FF0030EDB6AEC
:100D90001C691E731C605C695E739E7383F80FC0D0
:100DA00014B19C6083F80FE0DC6844F00047DF601A
:100DB000C76C17B144F04044DC60531C0135032B71
:100DC0008CBF033A1A46A94200EB8203DB6ADFD1EB
:100DD0009CE7F8B5076C06460C4600EB8703DD6A16
:100DE000436C93B1706C002201381146884212D8CE
:100DF0007CB1EB687169C3F30E039B1A99422AD345
:100E00002A69C4E90023002004E0FFF76EFF0028F0
:100E1000E8D10120F8BD6B69CBB1002CF9D02B696A
:100E2000236073696360A468002CF2D06A69226051
:100E300063600131EB68A468C3F30E027B1C032BD3
:100E400088BFFB1E06EB83051F46ED6ACEE72B69C4
:100E500023607369ECE76A69002ADAD02A69C4E979
:100E60000021A268002AD4D068695B1A1060536020
:100E7000C9E770B5D0E9105304460E466BB1636CF8
:100E80002B445A1E032A0ED804EB82040020E36A86
:100E9000DB68C3F30E03336070BDFFF726FF002845
:100EA000EDD10120F8E75A1FEEE7416CF0B50029BB
:100EB0003FD0836C93B14F1C066C00244FF0010CA3
:100EC000013900EB86032546DB6AA74208D1016899
:100ED00041F228128B5045640020F0BD0F46EBE72D
:100EE0001A691A601A7B1D735A7B5D739A7B9D7316
:100EF000DA7B83F80FC05A692AB15A699A60DA68B6
:100F000042F00072DA60DA6842F00042DA60C26CE5
:100F10001AB1DA6842F08042DA60A14207D9721C45
:100F2000032A88BFF21E00EB82031646DB6A0134F7
:100F3000CBE70120D1E770B5044600681D46D0F824
:100F40000032DB0701D5012070BDD0F8003223F05C
:100F5000787343EA415121F4F81141EA024242F028
:100F60000D02C0F80022FFF7D9FA06462368D3F82D
:100F7000000210F0010004D1D3F804329BB22B60C0
:100F8000E2E7FFF7CBFA801BB0F57A7FEED9DAE71C
:100F900038B504460068D0F80052ED0701D50120AD
:100FA00038BDD0F800029BB220F0787040EA415181
:100FB00021F4F81141EA02420C4922F00C02C1F876
:100FC000043242F00502C1F80022FFF7A7FA0546F5
:100FD0002368D3F8000210F00100E1D0FFF79EFA79
:100FE000401BB0F57A7FF3D9D9E700BF00800240FB
:100FF00038B503680546D3F8004200F019FE124BDD
:10100000124A24F470640344934205D844F40074F3
:101010002B68C3F8004238BD0D4B0E4A034493427F
:1010200002D844F44074F3E70B4B0C4A0344934258
:10103000EED90B4B0B4A0344934294BF44F48074A3
:1010400044F48064E4E700BF00D3CEFEBFE1E400D7
:1010500040F1E9FD3F787D0100796CFCFF596202A7
:10106000001F0AFA7FF0FA0270B50546A4B0002806
:1010700000F0C08090F851300BB906F0DBFB232361
:10108000287A85F85130964BD3F8F42042F00202CA
:10109000C3F8F420D3F8F43003F002030193019B6A
:1010A000002840F09880FFF751FA2B6803F5805331
:1010B0001A6842F001021A60FFF730FA06462B6800
:1010C00003F580531C6814F0010440F08780284623
:1010D0000126FFF78DFF00F0ABFD824B2A680BA9BC
:1010E0008DF83B6014948DF849408DF84B408DF895
:1010F00030608DF85E608DF83A608DF854408DF860
:101100008C608DF864401A948DF88D408DF88E4077
:101110008DF838400D948DF83D608DF83E408DF887
:1011200048401F941D9416948DF86C408DF88240B1
:101130008DF84A608DF84C608DF85D40B0FBF3F09F
:101140004FF40053013811934FF4C363C2F8DC002D
:1011500028461893202322934FF040530B934FF4CB
:101160008043109302238DF8394021938DF88040FD
:101170008DF881408DF85C408DF83C601C948DF8B2
:101180007860FFF791FA4FF4001302A928468DF812
:101190000C60089306934FF4067304960A93029426
:1011A0008DF824408DF815408DF814408DF81C40C2
:1011B0008DF82540FFF756FB2968686901F58852CC
:1011C000136823F4E01343F40023136010F00302C8
:1011D00012D06E650BE04FF4000064E7FFF79EF954
:1011E000801BB0F5FA7F7FF66AAF04236B65E023BE
:1011F00085F85130012071E041F208140B5923F4B5
:10120000FF4323F07E0343EA4003E8680B5100F1FB
:10121000600605F1180403461A705A709A70DA7065
:101220001A715A719A71DA711A725A729A72DA7262
:101230001A735A739A73DA7344F8043B1833B3423F
:10124000EAD1AA6241F22C1303220024CA5041F2CF
:1012500014132A69C85001F5895302F16006186019
:1012600005F12C0013461C705C709C70DC701C71C6
:101270005C719C71DC711C725C729C72DC721C7300
:101280005C739C73DC731C745C749C74DC741C75E0
:101290005C759C75DC7540F8043B1833B342E2D1B1
:1012A00041F2301303206C64C5E90F44C5E91244D0
:1012B000C85041F21C130020CA50483241F2281392
:1012C000CA506B689A88C1F800231B68C1F80433C0
:1012D00010236C6585F8513085F8523024B070BD0C
:1012E0000044025840420F002DE9F04F0B6885B0D2
:1012F000DFF8C0814FF0B04901930023DFF8B8E177
:101300000127019A9F4002EA0705AF4240F0B780EB
:101310004A6822F01006022E16D14FEAD30A03F0D3
:10132000070B4FF00F0C00EB8A0A4FEA8B0BDAF831
:1013300020400CFA0BFC24EA0C0C0C6904FA0BF4A8
:1013400044EA0C04CAF820404FEA430A0324D0F8C8
:1013500000B002F0030C04FA0AF4013E0CFA0AFC95
:10136000E443012E04EA0B0B4CEA0B0CC0F800C05E
:1013700010D8866806EA040BCE6806FA0AFC4CEA26
:101380000B068660466826EA0707C2F300169E40F1
:1013900037434760C66834408E6806FA0AF634431D
:1013A000C460D4006BD5D8F8F44023F0030603F0F2
:1013B00003074FF00F0C44F0020406F1B046BF00E3
:1013C000C8F8F44006F58066D8F8F44004F002044A
:1013D0000394039C0CFA07F4D6F808A02AEA040C3C
:1013E000334CA04252D004F58064A04250D004F5A2
:1013F0008064A0424ED004F58064A0424CD004F535
:101400008064A0424AD004F58064A04248D004F52C
:101410008064A04246D004F58064A04244D004F524
:101420008064A04242D004F58064A04214BF0A2424
:101430000924BC40D70344EA0C04B4606FEA0506F3
:10144000DEF8004054BF34402C439703CEF80040F0
:10145000DEF8044054BF34402C43D7024FF0B0476D
:10146000CEF80440D9F8004054BF34402C439202D7
:101470003C607C6854BF34402C43C9F804400133BD
:10148000102B7FF43DAF05B0BDE8F08F0024D0E70E
:101490000124CEE70224CCE70324CAE70424C8E7EA
:1014A0000524C6E70624C4E70724C2E70824C0E7EA
:1014B000000002580044025880000058F8B5036844
:1014C0000546D8075CD42B68990700F1AF802B68DC
:1014D000D90625D5AC4B1A6902F03802082A0BD080
:1014E0001A6902F03802182A40F0F7809B6A03F06C
:1014F0000303012B40F0F180A34B1A68D20502D5FB
:10150000EA69802A53D158684FF0F84292FAA2F261
:10151000B2FA82F12A6A8A4020F0F8410A435A60FE
:101520002B68190700F10B812B689A0600F13081B6
:101530002B685C071ED5954C236843F480732360A9
:10154000FEF7ECFF06462368DA0540F14681AB68FA
:101550008D4C012B40F04881236F43F0010323673A
:1015600041F28834FEF7DAFF874E0746336F9B0758
:1015700040F160816A6A002A40F0638100202FE018
:10158000814B1A6902F03802102A09D01A6902F058
:101590003802182A0DD19B6A03F00303022B08D1ED
:1015A000794B1B689A038ED56B68002B8BD1012079
:1015B00016E06B68744CB3F5803F12D1236843F496
:1015C00080332360FEF7AAFF6F4C064623689B0317
:1015D0003FF579AFFEF7A2FF801B6428F6D9032000
:1015E000F8BDA3B9236823F480332360236823F470
:1015F00080232360FEF792FF064623689F037FF552
:1016000062AFFEF78BFF801B6428F6D9E7E7B3F5DE
:10161000A02F236803D143F480232360CEE723F473
:1016200080332360236823F48023CAE7564BE9689C
:101630001A6912F0380F07D01A6902F03802182A16
:1016400028D19B6A9C0725D14F4A1368580701D5BA
:101650000029ACD013684C4C23F019030B431360E2
:10166000FEF75CFF064623685B070DD561684FF403
:101670007C3393FAA3F3B3FA83F22B69934021F4FA
:101680007C321343636022E7FEF748FF801B022889
:10169000E9D9A4E73C4C236879B123F019030B4343
:1016A0002360FEF73BFF064623685F07DED4FEF7A4
:1016B00035FF801B0228F7D991E723F0010323604F
:1016C000FEF72CFF0646236858077FF500AFFEF7AC
:1016D00025FF801B0228F6D981E7EB692A4CEBB184
:1016E000236843F080032360FEF718FF0646236853
:1016F000DF050DD561684FF0F84393FAA3F3B3FA11
:1017000083F22B6A934021F0F8421343636007E7AA
:10171000FEF704FF801B0228E9D960E7236823F065
:1017200080032360FEF7FAFE06462368D8057FF59E
:10173000F7AEFEF7F3FE801B0228F6D94FE76B6980
:10174000114C83B1636F43F001036367FEF7E6FE5C
:101750000646636F9B073FF5E7AEFEF7DFFE801B93
:101760000228F6D93BE7636F23F001036367FEF7B6
:10177000D5FE0646636F9F077FF5D6AEFEF7CEFE19
:10178000801B0228F6D92AE7004402580048025874
:10179000AB696E4C83B1236843F480532360FEF73A
:1017A000BDFE0646236898043FF5C2AEFEF7B6FEBE
:1017B000801B0228F6D912E7236823F480532360A4
:1017C000FEF7ACFE0646236899047FF5B1AEFEF73E
:1017D000A5FE801B0228F6D901E7FEF79FFE801BBD
:1017E00064287FF6B0AEFAE6B3B9236F41F28837CA
:1017F00023F001032367236F23F004032367FEF71D
:101800008DFE0646236F98077FF5B4AEFEF786FE81
:10181000801BB842F6D9E2E6052B236F03D143F0D3
:101820000403236798E623F001032367236F23F063
:10183000040394E6FEF772FEC01BA0427FF696AE4C
:10184000CDE6424C236903F03803182B3FF4AFAECA
:101850002368022A23F08073236069D1FEF75EFEBD
:101860000646236899015DD4A36AAA6A23F47C73AF
:1018700023F003031343EA6A43EA0213A3626B6B88
:10188000AA6B013B013A5B0212049BB202F4FE0216
:1018900013432A6B013AC2F308021343EA6B013A7D
:1018A000120602F0FE42134323634FF6F873626B95
:1018B00093FAA3F3B3FA83F122F47F42AB6C22F0E4
:1018C000F8028B4013436363E36A2A6C23F00C0332
:1018D0001343E362E36A6A6C23F002031343E36297
:1018E000E36A43F48033E362E36A43F40033E36280
:1018F000E36A43F48023E362E36A43F00103E362B3
:10190000236843F080732360FEF708FE0F4C054602
:1019100023689A013FF532AEFEF700FE401B022815
:10192000F6D95CE6FEF7FAFD801B022899D956E647
:10193000FEF7F4FD054623689B017FF51FAEFEF719
:10194000EDFD401B0228F6D949E600BF00440258CD
:10195000474B1A6902F03802102A10B500F0858052
:10196000182A0CD00AB1434810BD1A68424812F038
:10197000200FF9D01B68C3F3C103D840F4E79C6A79
:10198000F7EE007A986AD96A5A6BC0F3051001F035
:101990000101C2F3CC024A4307EE102A04F003020D
:1019A000012ABAEEE97A02D00ED3022A4CD01B6B80
:1019B000304AC3F3080306EE903AF8EEE66A36EED4
:1019C000877A37EE277A4BE01A6812F0200F2A4AFE
:1019D00026D019681B6BC1F3C101C3F30803CA40C9
:1019E000B2FBF0F206EE902AB8EEE66A06EE903A06
:1019F000F8EEE66A36EE877A37EE277A66EE077AF1
:101A00001B4B1B6BC3F34623013307EE103AF8EE72
:101A1000C76A87EEA67AFCEEC77A17EE900AA3E7AC
:101A20001B6BC3F3080306EE903AF8EEE66AB2FBCE
:101A3000F0F336EE877A37EE277A07EE903AF8EE33
:101A4000E77A67EE277ADBE71B6B0C4AC3F30803E0
:101A500006EE903AF8EEE66A36EE877A37EE277AA7
:101A6000B2FBF0F207EE902AE9E704487CE700BFFA
:101A70000044025800093D000090D00340787D01E9
:101A8000674A136803F007038B422DE9F0410446CF
:101A90000D4641D3226897074BD4D60751D4604AEC
:101AA000136803F00703AB4200F2A68022685507D3
:101AB00000F1AD80100706D55A496069CB6923F063
:101AC00070030343CB61D10606D55649A069CB69A3
:101AD00023F4E0630343CB61930606D5514AE169E1
:101AE000136A23F070030B431362FFF731FF4D4B72
:101AF0004FF480729B6992FAA2F2B2FA82F203F476
:101B00007063D340484AD35CD840484B18600020EB
:101B1000FEF7C6FC00200AE0136823F007030B431E
:101B20001360136803F007038B42B3D00120BDE8B4
:101B3000F0813C49E0688B6923F00F0303438B611C
:101B4000ABE7384BA1689A6922F470620A439A6144
:101B500061681A6802291CD112F4003FE6D01A69A4
:101B600041F288382F4F22F007020A431A61FEF72C
:101B7000D5FC63680646022B18D13B6903F0380395
:101B8000102B8CD0FEF7CAFC801B4045F5D90320F2
:101B9000CDE7032902D112F0007FDFE7012902D14E
:101BA00012F4807FDAE712F0040FD7E7032B0BD192
:101BB0003B6903F03803182B3FF471AFFEF7AEFC1E
:101BC000801B4045F4D9E2E7012B10D13B6903F0BB
:101BD0003803082B3FF463AFFEF7A0FC801B4045A1
:101BE000F4D9D4E7FEF79AFC801B4045CFD83B6977
:101BF00013F0380FF6D152E7136823F007032B4395
:101C00001360136803F00703AB428FD14EE7054919
:101C100020698B6923F0700303438B614AE700BF9F
:101C20000020005200440258789C00082400002440
:101C300008B500F017F8084B01229B6992FAA2F24E
:101C4000B2FA82F203F00F03D340044AD35CD840C7
:101C5000034B186008BD00BF00440258789C000880
:101C60002800002408B5FFF773FE084B4FF480727C
:101C70009B6992FAA2F2B2FA82F203F47063D34043
:101C8000034AD35CD840034B186008BD0044025897
:101C9000789C00082400002470B50E460546A8B1C3
:101CA000A1B10C4C61683046FEF71AFB40B9A3683D
:101CB0002B60E368E860C5E90133237C2B7470BDB9
:101CC0002468002CEED16FF00500F8E76FF00F00EC
:101CD000F5E700BFB08D00087047D0E90120101A69
:101CE000704710B50446406918B1FFF7F5FF0023AF
:101CF0006361206A18B100F0B3FE0023236210BDB7
:101D000038B50D460A4904462960FFF7C5FF68B19A
:101D1000084920462960FFF7BFFF38B10649204631
:101D20002960FFF7B9FF08B100242C60204638BDB8
:101D3000889C0008929C00089B9C000870B50C468B
:101D400015462ABB21B30121204601F0DFFA2C20E1
:101D500000F01CFC0646F0B12C22294606F0D2F811
:101D600031462046F46101F0E9FA0C49204601F0C1
:101D7000E9FA0B49204601F013FB0A4920460422E8
:101D800001F02CFB0849204601F0F4FA284670BD0A
:101D90006FF00505FAE74FF0FF35F7E7391F000848
:101DA00031220008FD1E0008E51E000838B5044673
:101DB0000D46002101F0C2FA0021204601F0C2FACE
:101DC0000021204601F0ECFA00222046114601F0E5
:101DD00005FB0021204601F0CDFA2DB12846FFF782
:101DE00080FF284600F0C0FA204601F005FE0546B7
:101DF00020B104220249204601F0F0FA284638BDFD
:101E0000FD1E00082DE9F04107460D4639B14B6A29
:101E1000A3B9486938B929463846FFF7C7FF0024F7
:101E20002046BDE8F081FFF758FF0028F3DD2A4B7C
:101E300040F2834229492A4806F06CF86A6A4FF654
:101E4000FE734FF6FF74D5F818809A4298BF144677
:101E5000A1B2B8F1000F2AD0686940B343689A1A5A
:101E600003681344B8EB030318BF01231CB37C8E33
:101E7000DEB2B7F860206400A4B2944228BF1446D2
:101E80008C4228BF0C46334622464146384603F072
:101E900065FA431C0DD1B7F8603033B1B7F8623042
:101EA000082B02D86408012CEDD800240AE0012395
:101EB000DCE70028F9D1AB692344AB616B6A1C1BDA
:101EC0006C6201246B6A002BAAD16869FFF705FFD9
:101ED0000028A5DC9FE700BFA69C0008DD9C000849
:101EE000149D000808B50B46014628B1002280F871
:101EF00028201846FFF786FF002008BD10B50C46C5
:101F0000014620B92046FFF751FF002010BD90F890
:101F100028300133DBB2042B80F82830F2D043693B
:101F2000002BF2D02046FFF76DFF0028EDD02046B1
:101F300003F08CFDE9E700002DE9F04F044687B07F
:101F40008B46154698464BB952B188B958462989EF
:101F500001F088F9284600F083FD01E0002AF5D160
:101F600021465846FFF722FF002007B0BDE8F08F5A
:101F70001189584601F076F96369002B40F03781EA
:101F8000A369206A002B40F03681002840F097803A
:101F90002562284600F01EFF206A0368002B00F02F
:101FA0009280B0F808A040F2FF33DFF858929A45CB
:101FB000944928BF9A460023524600F0DFFFBAF149
:101FC000060F40F2008152468F49484600F081F9E1
:101FD000002800F0F88004228C49484605F0BFFF35
:101FE0000190002874D1AAF1040309F1040688497C
:101FF0009BB230461A46029300F06BF9029B0746EB
:1020000050B91A468049304600F063F90746002867
:1020100000F0D9800123019309F103039F4240F2AC
:10202000D28052467B49484600F053F9002800F020
:10203000CA80BF1B00233046BFB289F80330F35576
:102040000596FEF757F98146002800F09A80471E52
:10205000F35D2F2B40F095806F4B9E42029302D18F
:10206000012840F08E803F2F28BF3F27B9F1010F94
:102070000BD0DFF890A13A4631460AF58060BA44A9
:1020800005F035FF00238AF800344FF0000AB9F15B
:10209000010F23D0D7F13F020FD0604B039253F8CA
:1020A0003A603046FEF726F9039A029B3146824297
:1020B00028BF0246D81905F01AFF574B11E02946F0
:1020C00000F09CFE65E7D5F80490B5F80AA076E725
:1020D000002389F804306FF00F083CE04F4B53F8B1
:1020E0003A301946204603932646FFF7D5FD039B59
:1020F000002841D1059333686661A3617368002BA2
:1021000006DA474B40F6CF024649474805F002FF42
:1021100073686362002384F8283063691B7CDA07E4
:102120006CD43F4B40F6DF0240493F4805F0F2FED9
:10213000019B83B163691B7CDB070CD5626A35495F
:10214000A06900F0C6F830B1A3690430C21A636A0E
:10215000A0619B1A6362206A18B100F081FC002321
:102160002362284600F07CFCB8F1000F3AD12146EA
:102170005846FFF747FEF7E60AF1010ABAF1050FE4
:1021800085D13F21059805F0DDFE08B100230370DD
:10219000059920462646FFF77FFD0028ABD005A90C
:1021A0002046FFF7ADFD06460028A4D105A920462C
:1021B000FFF7A6FD064600289DD1606284F828003E
:1021C000C4E90500C7E7206A00F0FCFD236A1B890B
:1021D000B3F5806FBFF47FAF05283FF67CAF6FF09B
:1021E0000408BEE718F1100F7FF4BEAEB8E628462B
:1021F00000F036FCB8E66FF00708ACE7019B002B57
:10220000A9D09BE7B0000024439D00083C9D000836
:1022100070B60008419D0008B0040024449B0008EB
:10222000A69C0008469D0008149D0008649D0008B7
:1022300010B5044630B1FFF754FD2046BDE810400C
:1022400000F092B810BD000010B52E2001F0AAFDDC
:10225000044630B9154B4FF421621549154805F075
:1022600059FE0121204601F051F850221249204622
:1022700000F026FF30B10D4B40F615220F490D48F6
:1022800005F048FE2046FF2100F0BCFF044630B9AF
:10229000064B40F617220A49064805F03BFE204649
:1022A0000849BDE8104001F093B800BFA69C0008A3
:1022B0008D9D0008149D0008689C0008A89D0008DA
:1022C000C49D00083D1D000840BA80B2704700BAA6
:1022D0007047F8B5044608460F461546FEF70AF85B
:1022E000064630B1254423788BB1A219954202D21B
:1022F00000242046F8BD3A789A4206D13246394643
:10230000204605F02CFE0028F3D00134EBE71C46F4
:10231000EFE708B500F00CF800F004FA00F04FFA0F
:1023200003F032FF00F0CAFEBDE8084003F0D8BE5B
:102330000A4B4FF4C8610A4A23F0030319600021D5
:102340001360197103F5C861936051600549C3F8C2
:102350004016012183F84416704700BF8F06002401
:10236000F00400244006400670B50446002800F042
:102370008380830706D0414B4FF4D67240494148D1
:1023800005F0C8FD404D2B68A34202D86B68A342FC
:1023900006D83A4B40F2AF123C493A4805F0BAFD34
:1023A0002B68A34268D86B68A34265D914F8043C33
:1023B000A4F1080633B9314B4FF4E0723449314887
:1023C00005F0A8FD002304F8043CAB68B3422B6879
:1023D00088BFAE609E4206D2284B40F25D122D4966
:1023E000284805F097FD6B689E4206D3234B4FF4B7
:1023F000AF722949234805F08DFD14F8043C33B130
:102400001E4B40F25F1225491E4805F083FD34F84B
:10241000083CB3F5C86F06D9184B4FF4B172204988
:10242000184805F077FD2B6834F8081C5A189642B6
:1024300010D0107970B9686882420BD0A8688242C7
:102440005A5A24F8082C5A5AA6EB030108BFAE606A
:102450001A44518034F8062C99188E420CD0087911
:1024600050B9A868864208BFA96034F8081C995280
:1024700034F8081C0B445A8070BD00BF1D9E000834
:102480004C9E0008149D0008F00400246D9E000876
:10249000849E0008989E0008AF9E0008C99E000810
:1024A000E49E0008F8B503314FF6FC7604460E4072
:1024B0000B2E04D9B6F5C86F02D900245AE00C26B9
:1024C0002D4D2B68A34202D86B68A34206D82B4B34
:1024D0004FF4FA722A492B4805F01CFD2B68A342E1
:1024E00048D86A68A24245D9A4F1080234F8080C19
:1024F000D21AA0F1080192B2891A89B2B14218D257
:102500001E4B40F2062220491E4805F003FDD4E789
:1025100006F114078F422DD802F10801AF680E446E
:10252000B6B299198F4288BFA96000250D719853E2
:1025300017E01FD01F1897F804C0BCF1000FE7D1B7
:1025400002F1080133F800C0A8680E44B8424FF009
:102550000000B6B203EB0601087108BFA96023F8BA
:1025600006C04A8024F8086C9A5BB2F5C86F01D0A7
:1025700013445E802046F8BDF00400241D9E000830
:102580000E9F0008149D0008259F00082DE9F041CA
:1025900000286DD003304FF6FC7505400B2D04D993
:1025A000B5F5C86F02D9002062E00C25354EC5F59F
:1025B000C86C6FF00708B76831687B1A9BB2634537
:1025C000F1D2CC18C85A94F804E0BEF1000F57D1EC
:1025D000A8EB03020244AA4252D305F1140C62454F
:1025E00048D305F108021A4492B201EB020C8CF8B0
:1025F00004E08852ACF802300123228023718B5A08
:10260000B3F5C86F01D019444A80A74212D12346BE
:10261000D6E90002197911B19A422ED113469A4295
:10262000B36007D031B1184B40F2CF221749184898
:1026300005F070FC083573682544AB4206D2124B96
:102640004FF435721349124805F064FCA3070DD00E
:102650000D4B40F2D62210490D4805F05BFC0A4BA9
:102660004FF436720D490A4805F054FC04F1080095
:10267000BDE8F08101232371C7E71B880344C9E744
:1026800003469CE7F00400241D9E0008459F0008B7
:10269000149D00085E9F00088E9F0008BD9F0008E3
:1026A00010B5046854B123680360A30706D0044B37
:1026B00040F249120349044805F02CFC204610BDA5
:1026C000E09F000810A00008149D000838B58B0793
:1026D00005460C4606D0064B40F29D1205490648B9
:1026E00005F018FC2B681A6822601C6038BD00BF1A
:1026F000E09F000833A00008149D000843680022F2
:102700008168033330B523F0030344880A609442A0
:1027100000DC30BD0D6801321D6005880B602B4464
:10272000F5E7000038B50024044D55F824000134C5
:10273000FFF7E4FF092CF8D138BD00BF6C9B0008FF
:10274000082808B507D8084B53F820309868BDE82A
:102750000840FFF7A5BF054B40F287120449054822
:1027600005F0D8FB002008BD6C9B0008E09F000826
:1027700065A00008149D0008082806D9074B40F200
:10278000DB120749074805F0C5BB29B1064B53F8D2
:1027900020000830FFF79ABF704700BFE09F000895
:1027A00082A00008149D00086C9B000890F82B3054
:1027B00001461B0702D5043103F04EBF7047704736
:1027C00073B504460D4691B10B680193019A636895
:1027D0009A420AD0261D01A9304601F003FB01A947
:1027E000304603F069FD2DB9656002B070BD054B40
:1027F0001B68EAE72B686360002BF6D02046FFF7E2
:10280000D5FFF2E7689C000870B5064615461C46E1
:1028100009B10B684BB93046FFF7D2FF05B12D68FF
:10282000B56004B12468F46070BD02B11568B5608C
:1028300004B12468F4603046BDE87040FFF7C0BFC3
:102840002DE9F843099E04460F46904699462EB955
:10285000154BFB221549164805F05CFB0323154A6E
:102860000025204684F82030089BE560E36113785A
:1028700084F82B50591C84F82E300A9B1170424664
:10288000236139464B46C4E90155FFF7BDFF204699
:10289000B04730B9084B1A6822601C602046BDE87A
:1028A000F8832C46FAE700BF9DA00008CEA00008E0
:1028B000149D0008200500248C3B0024014B186067
:1028C000704700BF903B002490F82B20D10709D41B
:1028D00042F00101520780F82B1003D543680BB179
:1028E000FFF764BF704790F82B30D90707D523F066
:1028F00001011B0780F82B1001D503F0FBBD7047C9
:1029000090F82B20510709D442F00401D20780F837
:102910002B1003D543680BB1FFF748BF7047000089
:1029200070B5044670BB204B40F23F221F4920483F
:1029300005F0F0FA002070BD1D46267B60680EB1E0
:10294000032E06D1401A04F1100290420AD201204F
:10295000F1E7013E012E10D800290BDA6289AA4264
:10296000F5D3401A628960601A4462812289134457
:102970002381DFE7002AF4D1E9E70B4B40F277220D
:102980000C490CE00029D5D08BB2D5DA5D426089C4
:10299000ADB2A842D1D2044B40F2472206490448C6
:1029A00005F0B8FAD3E700BFE5A0000867A2000869
:1029B000149D000833A1000815A10008074B002250
:1029C00010B51A70064B1C682CB1206F20B100F0B6
:1029D00095FC0023236710BDE468F5E7943B0024D1
:1029E0009C3B002470B5049D04281ED8DFE800F04D
:1029F0002603281B1B002220033020F00304BDF80F
:102A000014000E1986424FF0000016D81860CDB1A0
:102A10002C445C6002201A730122198158731846F5
:102A20005981DA8109E00020E6E7074B40F2C51240
:102A30000649074805F06EFA002070BD3620DBE736
:102A40000E20D9E75D60E5E7E5A0000841A1000898
:102A5000149D00080022FFF763BF0122FFF760BF4B
:102A60002DE9F843044650B92546284B40F2D222BE
:102A70002749284805F04EFA2846BDE8F883037B2D
:102A8000032B06D9214B40F2DE222349214805F0D1
:102A900041FA00251D4EDFF888801E4FE38933B9C7
:102AA000334640F2EB224146384605F033FAE389DB
:102AB000013B9BB2E381002BDED1637BD4F8009015
:102AC0009B0711D5236933B9334640F2F9221349E4
:102AD000384605F01FFA23692046984701354C46D1
:102AE000EDB2002CDAD1C7E7237B032B04D12146BA
:102AF0000820FFF741FEF1E7013B012B02D82146F8
:102B00000720F6E72046FFF72FFCE7E7E5A00008DF
:102B100067A20008149D000865A1000890A10008A4
:102B20007AA100082DE9F84F0E46174604280ED862
:102B3000DFE800F01503170B0B002225032F00F22E
:102B4000BB80DFE807F091ACAC100025F6E75D4BE9
:102B50004FF48B725C495D4805F0DCF94AE036259C
:102B6000ECE70E25EAE70820FFF7EAFD044628B95E
:102B7000574B01221A702046BDE8F88F032300F559
:102B80001877068103730023036043190335133359
:102B900025F0030523F00303C5F514754360B54222
:102BA00028BF35462B4445819F4206D2454B4FF402
:102BB00098724849454805F0ADF90123A346DFF86E
:102BC0000481E3816389DFF818A1F61ADFF8FC902D
:102BD000002E04DC0123E38100236373CBE708208C
:102BE000FFF7AEFD054638B9394B012220461A7071
:102BF000FFF736FF0024BEE703230373002343736C
:102C000003604FF6FF73CBF800009E4206D14346A7
:102C10004FF4A6725146484605F07CF9B3B2B3F5BD
:102C2000147F2B8128BF4FF414736B8105F11003BF
:102C30006B609B0706D043464FF4A972264948466D
:102C400005F068F96289636813449F4206D24346DF
:102C500040F255121F49484605F05CF90123AB4686
:102C6000EB816B89F61AB3E705F11300F31C20F032
:102C7000030023F00303184480B29842BAD3FFF74D
:102C800085FC04460028B5D0054400230681133591
:102C90004681036025F00305037345609AE707202A
:102CA000FFF74EFD04460028A4D00023068146818C
:102CB0004360036007738DE7024B4FF4C672074908
:102CC00049E700BFE5A00008B1A10008149D000875
:102CD000943B0024CCA1000811A200083EA20008E9
:102CE000FDA100082DE9F8430D46044630B92E4BEE
:102CF00040F2F3122D492E4805F00CF9237B032BEB
:102D000006D9294B40F2F7122A49294805F002F961
:102D10002689AE4245D9AE1B234FDFF8A490DFF8D9
:102D200090806389AB4219D3227B002A31D1AB4218
:102D30002FD0637B9B072CD461682046091B294454
:102D400089B2FFF7AFFB044618BB174B40F21D22B8
:102D50001949174805F0DEF86481FFDEED1A4FF6D9
:102D6000FE739E42ADB206DD3B4640F20B22494661
:102D7000404605F0CFF82389334423812468002C92
:102D8000CFD13B4640F20F220C49404605F0C2F835
:102D9000C7E720686581258108B1FFF761FE002340
:102DA0002360BDE8F88300BFE5A0000859A2000831
:102DB000149D000871A20008B5A200089DA2000899
:102DC0008CA200080346002290B2013203B970477A
:102DD0001B68F9E758B1C38901339BB2C38133B98A
:102DE000034B40F239320349034805F093B870476A
:102DF000E5A00008D1A20008149D000870B50D469A
:102E0000044600B161B9154B40F24D3214491548E2
:102E1000BDE8704005F07EB829890B442381144633
:102E200022682389002AF7D162899A4206D00B4B87
:102E300040F255320C490B4805F06CF8236833B169
:102E4000064B40F256320949064805F063F82A89D4
:102E5000238925601344238170BD00BFE5A00008CD
:102E6000E3A20008149D000818A3000845A3000869
:102E70002DE9F84F0C46054620B119B102890B899E
:102E80009A420AD2364B40F2BD323649364805F0F6
:102E900041F86FF00F00BDE8F88F4FF0000BDFF83E
:102EA000C080DFF8D4A05F46DFF8BC906E896389EC
:102EB000F61B6868A3EB0B03616838449E425944D3
:102EC000ACBF9EB2B6B23744324605F010F86B89FB
:102ED000BFB25E44BB421FFA86FB06D2434640F2B5
:102EE000CD325146484605F015F863895B4506D258
:102EF000434640F2CE321D49484605F00BF863893F
:102F00005B456B899CBF24684FF0000BBB4208D126
:102F10002D682DB914B3124B4FF476721449B5E7EE
:102F200000277CB1628923899A420BD123684BB177
:102F30000B4B40F2DE320F490B4804F0EBFF6FF011
:102F40000500A8E76A892B899A4205D12B681BB135
:102F5000034B40F2E332EEE7002CA7D120469AE77C
:102F6000E5A000088CA30008149D0008D3A3000866
:102F7000EEA30008FBA30008BCA300082DE9F04164
:102F80000F469046064650B935461B4B40F2FE327E
:102F90001A491B4804F0BEFF2846BDE8F08141BB3A
:102FA000154B40F2FF3217493D46154804F0B2FF79
:102FB000F2E7728953B1934208D39B1A9BB23668E9
:102FC000B8F1000FE8D0002EF3D1E5E7D21A71680E
:102FD000781994B21944444528BF444622462544F2
:102FE000A8EB040404F083FFADB200231FFA84F8B9
:102FF000E5E70025E4E700BFE5A0000825A40008F8
:10300000149D000844A4000812494FF48043F0B511
:103010000A884FF6FF76104FB2424FF0000416BFF9
:10302000501C4FF4404080B257F82420156825B951
:103030000134042CF8D1088008E0EA8A824206D1E3
:10304000013B9BB2002BE7D108801846F0BDED682C
:10305000EDE700BF08000024FC9B000810B5044603
:1030600030B9134B40F24D121249134804F052FF8D
:10307000237D042B03D0072B0CD0032B08D1204633
:1030800002F08CFC60B905232375204602F0DEFCBB
:10309000002010BD204602F081FC08B90923F3E7A7
:1030A000431CF6D1A37E43F00803A376F0E700BFEC
:1030B000F8A4000827A50008149D00087047000028
:1030C000F8B51E4D0446002918BF0D4640B1037DDA
:1030D0004BB11B4B4FF411721A491B4804F01AFFF5
:1030E0006FF005001AE032B9FFF78EFF024650B9C3
:1030F0006FF0010012E0154F57F82310086870B9FF
:103100000133042BF8D12B6803B12360104BE2820A
:103110001A681C60E26002F0ADFF0020F8BDC18AB1
:10312000914205D106682EB1296819B18E4201D0AD
:10313000C068E4E76FF00700F0E700BF689C000894
:10314000F8A4000833A50008149D0008FC9B0008A3
:10315000A83B0024037D70B5054616466BB1234B92
:103160004FF42D7222490024224804F0D3FE6FF060
:103170000E0306B13370204670BD0220FFF7E0FA5F
:10318000044600282FD02B6901220361EB8A0275C7
:10319000C3826A7D42752A7A0272AA7A82726A7A38
:1031A00042722A6802603BB1134A1368AB4212D1E3
:1031B000EB6813600023EB6029460120FFF7DCFA7F
:1031C0000E4BA3610E4B1A681C60E26002F052FFC6
:1031D0000023CEE71346002BECD0DA68AA42F9D1DF
:1031E000EA68DA60E6E74FF0FF33C2E7F8A40008C8
:1031F0005BA50008149D0008A83B00242F3C000894
:10320000A43B00240022FFF7A5BF000038B5018DC4
:103210000446C36A628E456AC81AB2F5866F2844AE
:1032200094BF821AA0F58662002A01DB618538BD51
:10323000EA1A002A02DD00206085F8E75D1BB5F57B
:10324000803F06D3044B4FF442720449044804F013
:1032500061FE65850020EAE7F8A400087DA5000866
:10326000149D000838B5037D04460D46012B06D198
:10327000174B4FF448721749174804F04BFE218D45
:10328000294489B2B1F5066F218511D94FF406633F
:1032900023852046FFF7BAFFB0F5067F17DBA37E34
:1032A000204643F00203A376BDE8384002F0CEBBCF
:1032B0000029EED1237D072BE8D0092BE6D0044B63
:1032C00040F22D320549044804F024FEE1E738BD00
:1032D000F8A4000897A50008149D0008BDA50008E3
:1032E00010B5044648B1406808B1FFF7B9FB214664
:1032F0000320BDE81040FFF73FBA10BD10B500B97C
:1033000010BD0468FFF7ECFF2046F8E741757047F1
:1033100038B504460320FFF713FA054660B120468E
:103320002B4604F1100250F8041B904243F8041B92
:10333000F9D16868FFF74EFD284638BD00B101613C
:103340007047000038B50D46044658B1037D012B87
:1033500006D1054B40F2BB620449054804F0DAFD92
:10336000C4F8805038BD00BFF8A40008DEA50008EE
:10337000149D000838B50D46044650B1037D012B5D
:1033800006D1044B40F2CC620349044804F0C2FD6C
:10339000E56738BDF8A4000805A60008149D0008DC
:1033A00038B50D46044658B1037D012B06D1054BB7
:1033B0004FF4DC620449054804F0ACFDC4F88C50BD
:1033C00038BD00BFF8A400082CA60008149D000812
:1033D00018B1037D012B08BF81617047037D012B6C
:1033E00070B504460E46154606D1054B40F20372F1
:1033F0000449054804F08EFDC4F88860257770BD47
:10340000F8A4000852A60008149D000838B5037DF2
:103410000446012B19D90A2B17D0406F18B1FFF7BA
:103420001FFB00236367206F0025FFF767FF4FF640
:10343000FF73A06E23862567FFF760FFE06EFFF73E
:103440005DFFA4F86450C4E91A5538BD2DE9F04F6A
:10345000B14E85B0DFF8F0A2336801333360AF4B73
:103460001A78029301321A70AD4F4FF00008DFF85E
:10347000DC923C686CB9AB4FDFF8D0823D68DFF876
:10348000D0A2DFF8A892002D40F0858105B0BDE8FC
:10349000F08F237D33B94B464FF47C72A249A34889
:1034A00004F038FD237D012B06D14B4640F2F1326A
:1034B0009F499E4804F02EFD237D0A2B06D14B46E2
:1034C00040F2F2329B49994804F024FD029B627F4E
:1034D0001B789A4204D1E5684446A0462C46C9E7C9
:1034E000227D6377022A94F8421040F09E800529DD
:1034F00000F2E68094F895B0BBF1000F00F0A880D0
:103500008D4894F8943083449BF80F2093423CBF3D
:10351000013384F8943094F89430934280F087809B
:103520004FF0000B237D062B0BD1A27ED20608D5CF
:103530003268216A521A282A84BF0BF1010B5FFA04
:103540008BFB257A15F0080519D0042B02D0072B28
:1035500040F0CB80D4F890504FF4FA70316805F504
:103560002422236A02F6B842C91AB2FBF0F2914251
:1035700040F2A9800BF1010B01255FFA8BFB206F54
:1035800068B13368226A9A1AB4F9403003EB4303F6
:10359000B2EB430F03D3FFF7B1FE00232367237D74
:1035A000032B40F0A4803368226A9B1A282B03D88F
:1035B000BBF1000F00F0CE802046D4F88CB0FFF7AE
:1035C00025FF3B68B8F1000F00F09980A34206D1B7
:1035D0004B4640F289425949544804F09BFCE36849
:1035E000C8F80C304DB1238B22460193E38A009337
:1035F000231D616AE06C02F0A1FB236921460120D2
:10360000E5680393FFF7B8F800228AF80020BBF1C1
:10361000000F04D0039B6FF00C011846D8479AF8AE
:103620000030002B3FF458AF1EE70B2960E720461F
:1036300002F074FC00287FF473AF94F8953084F89E
:103640009400062B3FF66CAF013384F8953067E7A2
:10365000B4F93030002BA4BF01332386E36E002B76
:103660003FF45EAFB4F93000B4F940309842FFF651
:1036700057AF022A0BD0B4F93C20B4F93E3003EB2B
:10368000E2032D4A0A44D27D9340A4F8403000233F
:10369000B4F84820618E20462386B4F85C30A4F844
:1036A0004810934228BF13464A005B0892B2A4F820
:1036B0004A30934238BFA4F84A2002F099FB31E720
:1036C0004FF0010B2EE794F896301D4A02FB03538E
:1036D000B3FBF0F3994208D9204602F0F5FB20B97C
:1036E00094F89630013384F89630002547E7092B8B
:1036F0007FF45EAF3368226A9B1AF02B57E7A34230
:1037000006D04B4640F28D420E49084804F002FCB8
:10371000E3683B6066E700BFA03B0024210500246E
:103720009C3B0024AC3B002470A60008149D0008BC
:103730009AA60008C4A60008FC9B0008F1A6000891
:10374000F82401001CA70008983B0024F8A40008F6
:1037500046A70008E37E227F0133E568DBB29A4288
:10376000E3763FF6BAAED4F8883084F81BB08AF816
:1037700000B073B12146206998479AF80030002BB9
:103780007FF472AE00287FF4A8AE204602F05EF906
:10379000A3E65846F1E72B7D0A2B06D0434640F2BC
:1037A000BD425146484604F0B5FB33682A6A9B1A6D
:1037B000F02B02D82C46ED6865E62846FFF726FE7A
:1037C0003B6894B1AB4206D1434640F2CB420D492F
:1037D000484604F09FFBEB68E360D5F80CB029463F
:1037E0000120FEF7C9FF5D464DE6AB4206D04346D9
:1037F00040F2CF420449484604F08CFBEB683B6042
:10380000EBE700BF75A700089CA7000803688B4280
:1038100010B50C4637D1CB68036000232046E36027
:10382000FFF7F4FD237D0A2B0AD0012B08D0A37EDD
:10383000DA0705D543F002032046A37602F006F925
:10384000237D012B1AD0A36E33B1134B40F2537278
:103850001249134804F05EFBE36E33B10E4B40F2A5
:10386000547210490E4804F055FB236F33B10A4BD4
:1038700040F256720C490A4804F04CFB00232375B1
:10388000E38210BD1346002BC7D0DA68A242F9D1FB
:10389000E268DA60C1E700BFF8A40008C2A7000828
:1038A000149D0008DAA70008F3A7000837B5037DC8
:1038B0000446002949D0042B01D0072B45D1626F63
:1038C0001AB9228DB2F5066F3FD0A37EDB0606D46F
:1038D0003F4B40F20F123F493F4804F01BFB238B44
:1038E0002246616A0193E38AE06C0093231D02F093
:1038F00025FA2046FFF78AFD384A1368A34215D1FE
:10390000E368136000230122E360354B1A70237DC6
:10391000042B13D10A232375324B1A681C60E26012
:1039200002F0A8FB002003B030BD1346002BE9D005
:10393000DA68A242F9D1E268DA60E3E72A4B1B6851
:10394000A34217D101F02EFCECE7012B20D007D3C6
:10395000022B33D0204603B0BDE83040FFF77EBBDA
:10396000E38A3BB1214A1368A34209D1E36813609B
:103970000023E36021460120FEF7FEFED2E7134656
:10398000002BF5D0DA68A242F9D1E268DA60EFE7FD
:103990001749002051F8232012684AB90133042B3B
:1039A000F8D121461348FFF731FF21460220E3E713
:1039B000956FAC4208BF9067D268EEE72146074892
:1039C000FFF724FF0120064B21461870D4E700BF03
:1039D000F8A400080AA80008149D00089C3B0024D5
:1039E000983B0024AC3B0024B03B0024A83B0024BF
:1039F000FC9B0008A43B0024037D0121012B1EBF7A
:103A0000837E43F010038376FFF750BF10B508465E
:103A100014463AB11189FFF725FC2046FFF720F83C
:103A2000002010BD002BFBD1BDE81040FFF7E4BF24
:103A3000F8B5466F0023D0F880500446777B436783
:103A4000DDB1014632460069A8470546E0B9BB062C
:103A500011D5238DD4F88060B3F5066F1CBF0133F8
:103A6000238546B10023214620691A46B0470D3010
:103A700001D16FF00C052846F8BD01462B463246B1
:103A80002846FFF7C3FFE0E710F10D05F1D06667A8
:103A90006FF00405EFE700002DE9F8431B4D1C4FC4
:103AA0002B781C4E01332B703C684FF000080CB98A
:103AB000BDE8F8832B78627F9A4224D06377A37E97
:103AC000D90709D543F002032046A37601F0BEFFD3
:103AD000A37E23F00303A376A37E1A0705D523F064
:103AE00008032046A376FFF7B9FA636FD4F80C9069
:103AF0003BB1204686F80080FFF79AFF3378002B11
:103B0000D2D14C46D3E7D4F80C90FAE72105002433
:103B10009C3B0024983B002408B5FFF7BDFF064AF4
:103B200053780133DBB25370DB0703D5BDE808409F
:103B3000FFF78CBC08BD00BF21050024037D012BCD
:103B40002DE9F34704460E4606D1304B4FF4F07290
:103B50002F49304804F0DEF9237D0A2B0AD1214693
:103B60002D48FFF753FE2146012002B0BDE8F04783
:103B7000FEF702BED4F84C90D4F824A0D4F88C7090
:103B8000D4F81080E58A9BB93DB1244A1368A3425A
:103B900006D1E36813600025E5602E460FE013466A
:103BA000002BF8D0DA68A242F9D1E268DA60F2E7D5
:103BB00021461B48FFF72AFE1A4B01221A70E06EBD
:103BC00008B1FFF79BFBA06E08B1FFF797FB206FD2
:103BD00008B1FFF793FB46B1238B22465146484676
:103BE000CDE90053231D02F0A9F821460120FEF77C
:103BF000C3FD3FB16FF00C0140463B4602B0BDE84B
:103C0000F047184702B0BDE8F08700BFF8A40008ED
:103C100023A80008149D0008AC3B0024A83B002406
:103C20009C3B0024983B00240121FFF787BF0846F6
:103C300008B5FFF7F9FF6FF00C0008BD38B5044672
:103C400001B938BD0A682368CD689A4202D1084696
:103C5000FFF7EAFF2946F3E70C4B30B4196800245C
:103C60000B4B22461D6821B972B1104630BCFFF7DC
:103C700065BF0B7D834205D10B6AEB1AA34224BFBB
:103C80001C460A46C968EEE730BC70479C3B0024DE
:103C9000A03B0024F8B505460120FEF751FD394C44
:103CA000034690BB384A26681268002A54D113B1E3
:103CB0001846FFF7B9FF0120FEF742FD034620BB7F
:103CC0000920FFF7C9FF0120FEF73AFD0346E0B9DE
:103CD0000820FFF7C1FF0120FEF732FD0346A0B91F
:103CE00015F0800F294AD4F800C01E460CBF2846A4
:103CF0007F201268002A37D113B11846FFF794FFCE
:103D00000120FEF71DFD034620B39822002118462E
:103D100004F0F8F81E494FF4866203468162FF21E1
:103D2000A0F8602081720621A0F84A20A0F8401077
:103D3000C1871849184A01630121C0F88020A0F802
:103D400048102168154A0162154945750978C0F87F
:103D5000902041771846F8BD116A711A814224BF3C
:103D600013460846D268A0E7577D874207D8116AF4
:103D7000ACEB0101B14222BF38460E461346D26871
:103D8000B8E700BFA03B0024AC3B00249C3B0024D0
:103D900060086008FFFF18020D3A000800DD6D00A2
:103DA000210500244020FFF775BF0000034B044AA3
:103DB0005868126810445860704700BF080000241B
:103DC000A03B002410B50446084602F001FF30B1C4
:103DD000438C23B1283B9BB29C4228BF1C46204603
:103DE00010BD000038B50D46044680B1036873B1BC
:103DF0000C4B1968FFF722FF0B4B20461968FFF7A1
:103E00001DFF25B12B6813B1084B1B6803B938BDE2
:103E100018682168DA68884204BF29681960134667
:103E2000F4E700BF9C3B0024A83B0024A43B0024F3
:103E3000F8B5C36805460C469889FEF745FAC207EF
:103E400014D4184EE76830682B89796822890344B6
:103E50000A449A1A002A0FDA5B1A002B0ADD091AA3
:103E6000686889B22981FEF73DFF03E020460024FF
:103E7000FFF744FA2C60F8BDB889FEF725FAC307AE
:103E800007D5EB6801209F89FEF71EFAEB683843DF
:103E9000988127682046FFF723FA3C46002FD1D1AE
:103EA000E8E700BF24050024037D032B2DE9F14F33
:103EB000044606D87D4B4FF481627D497D4804F06D
:103EC00029F87D4D2B79DB0640F157812968B4F83C
:103ED0005C20AB68D4E91460771A002F0ADB8E42AD
:103EE00002D1C61A002E05DB984218D1EE68F68979
:103EF000964214D9EE68B4F85EC0F689B7B2A4F859
:103F00005C60BC45C4E9141338BFA4F85E6094F843
:103F100095108FBB19B94FF48071A4F89410666C9A
:103F2000991B002937DC298A89BBB4F85C1002444C
:103F3000676D394491422AD1B4F93020002A26DB3A
:103F40009E4224D194F84330FF2B1CBF013384F8E8
:103F5000433094F84330032B14D9B4F84820638ECF
:103F600013449BB29A4201D2A4F848304F4FDFF875
:103F70005091DFF84081F3E00029D0D0002184F88F
:103F80009510CCE7F2D1204601F077FFEEE7002351
:103F900084F84330EAE7E26C9A1A002A00F3828040
:103FA000A27E0021B4F93C0057076364237D48BF1B
:103FB00022F0040284F8421084F8431042BFA27633
:103FC000B4F84A20A4F84820032BE28F02EBE00269
:103FD000A4F840200FD9B4F84820B4F84A10638EF2
:103FE00091429CBF5B4393FBF2F313449BB29A4212
:103FF00001D2A4F848302D4FDFF8C490DFF8B48028
:1040000043E0DB685868FEF762F9E36E82461E897A
:10401000DB689889FEF758F9AB6810F00300A6EB4F
:10402000030618BF012056440644002E30DCE66E1D
:10403000B4F862A033687068E366FEF7C3FE824599
:1040400006D23B4640F29E424946404603F062FF9C
:104050007068FEF7B7FEB4F862306A8A181A3389BE
:104060001344A4F8620030466B82FFF739F9B4F8C4
:10407000623053B1E36E43B9A36E33B93B4640F2AD
:10408000A7420E49404603F045FFE36E002BB8D12E
:10409000E26E002322B94FF6FF722286E37665E7CF
:1040A0002386FBE7204601F09CFC5FE7DEA80008C2
:1040B00010A90008149D00082405002451A9000837
:1040C00029A90008DB68AE685868FEF700F9A36EFE
:1040D0008246B3F808B0DB68A6EB0B069889FEF7BA
:1040E000F3F810F00300A6EB0A0618BF0120361AF9
:1040F000002E38DBAB68E26C9B1A002B33DCA66E1B
:104100003368A3660BB9A4F86430B4F862A0706891
:10411000FEF758FE824506D23B4640F2D54249465C
:10412000404603F0F7FE7068FEF74CFEB4F86230CC
:104130006A8A181A33891344A4F8620030466B82E5
:10414000FFF7CEF8B4F8623053B1E36E43B9A36E13
:1041500033B93B4640F2DD42A749404603F0DAFE60
:10416000A36E002BAED1B4F860306A8A1344626B40
:10417000A4F86030002A40F00181288A626A2B6826
:10418000002800F0E082217D062900F2DC82A2EB0B
:104190000308B8F1010F00F12781C3F10101091AE9
:1041A0001144002900F32081AE69474636B9934B8C
:1041B00040F23C529249934803F0ACFE47F6FE733E
:1041C000984506DD8D4B40F23D528F498D4803F0F6
:1041D000A1FEA8691FFA88F94389434580F2F88057
:1041E0000389434506DA854B40F23F5287498548AB
:1041F00003F090FEAB6900221989A1EB090189B295
:104200007389BB42C0F2DF807942304609B2FEF7C3
:1042100021FC30B1794B40F24C527D49794803F092
:1042200079FEA98B2B68626A0B442A609B1AAB83C8
:104230002B6A5A602968626A8B1A002BC0F27D8251
:104240004B1C208D9B1A1B1A002B00F37682914287
:1042500040F0A8812B6AAE8B9889FEF735F810F0F4
:104260000300238D18BF0120304480B2834228828E
:104270003DD22B6A9889FEF727F8C6070DD52B6A21
:104280009E89304626F47C56FEF71EF800F03E006C
:10429000FEF71AF82B6A06439E81238DAB832B6AA7
:1042A0009889FEF711F88007A86942BFAB8B03F12C
:1042B000FF33AB83A98BFEF715FD2B6AAE8B988974
:1042C000FEF702F810F003002B6818BF0120626AA5
:1042D000304480B228821844238D1344984206D07B
:1042E000464B40F27F524B49464803F013FE236F82
:1042F000002B00F09C802B6A9889FDF7E5FFC10731
:1043000000F19280266F28682B8A0344002E33D058
:10431000F76831897A681144591A002980F2B4800B
:104320009B1A002B28DD2B6A121AAA839889FDF7A5
:10433000CBFF8707A86942BFAB8B03F1FF33AB8389
:10434000A98BFEF7CFFC2B6AAF8B9889FDF7BCFFDA
:1043500010F003002B6818BF0120384480B2288277
:104360001844F3685B68984206D0244B40F2AF5281
:104370002949244803F0CEFD266758E0A36BA968BD
:104380005B1A002BBFF6F9AE244BB4F93C00196858
:10439000891AB4F93E20A1EBE001A2EBA20289B296
:1043A0000BB20844002B00B2B8BF4942A087B8BF87
:1043B0000BB213449BB2E38703EBE003A4F8403055
:1043C00000236363D9E63181FF1A7281366817E7EB
:1043D000C9F1000109B2FEF73DFB00283FF421AF0F
:1043E000064B40F2515218E79B1A002BBEBFA37E2A
:1043F00043F00203A3761DE751A90008DEA80008D8
:1044000071A90008149D000881A9000890A900085E
:10441000A0A90008B3A90008EAA90008A03B00244D
:1044200003682367FEF75CFF206F0028F8D12A8A13
:104430002B6813446362238D934206D2844B40F26F
:10444000B9528449844803F065FD238D20462A8AA9
:104450009B1A2385FEF7DAFEAB691A8912B16B62EB
:104460000023AB612B6A9889FDF72EFFC60705D59F
:1044700095F8283043F0200385F82830744FDFF892
:10448000E081DFF8D49176E0B889FDF71DFFC2071F
:1044900017D52B6A9889FDF717FF830711D42B6A6C
:1044A00001209F89FDF710FF2B6A3843AF8B80B244
:1044B0009881FDF709FF10F0030018BF01200744A1
:1044C0002F8237683046FEF70BFF3E461BE72B6016
:1044D0009089B6F808A0FDF7F7FE636A10F00300B4
:1044E000B6F808B09A4418BF0120F3685044B4F8F5
:1044F00028A060629889FDF7E7FE10F0030018BF5E
:1045000001205844824506D23B4640F2DE524146E5
:10451000484603F0FFFCF368B6F808A09889FDF759
:10452000D3FE10F00300238D18BF01205044181A49
:1045300020852046FEF76AFE71680B892BB1686AF8
:1045400040B3FEF75BFC00237360F3689889FDF7C6
:10455000BBFEC0070AD595F8283043F0200385F844
:104560002830237D042B04BF07232375336830468E
:104570002367FEF7B5FE266F26B1F268616A5368BD
:104580008B42A4D0A37ED90706D523F0010343F0C4
:10459000020303E06962D6E743F00103A37601B0AA
:1045A000BDE8F08F204601F01CFA266F26B92B4893
:1045B000FEF7AEFE2067F2E72B68002703F1FF3E0F
:1045C00003F1010CF06842689A4214D1AA8B338936
:1045D0009A42E4D92148FEF79BFE0028DFD047B17C
:1045E0003860314601B0BDE8F04FFFF721BC0E4600
:1045F000E8E72067F5E74FB9991A002932DA17483A
:10460000FEF786FE0028CAD02067EAE7F968496805
:10461000AEEB0101002925DBACEB0201002921DC16
:104620000E48FEF775FE04460028B8D0FB682968DE
:104630005A683B8913445B1A002B05DD891A786898
:1046400089B23981FEF74EFB3C6031462046C9E70E
:10465000DEA8000825AA0008149D000838050024DB
:1046600044AA0008316837460029C0D19B1A002BA4
:1046700095DD8089FDF728FEC20790D43848FEF703
:1046800047FE306000288AD0F36829685A68338969
:1046900013445B1A002B05DD891A706889B23181D9
:1046A000FEF720FB2A682B8A1344626A9B1A228D2C
:1046B0009B1A002B7FF773AF3368DB689889FDF78F
:1046C00003FEC3070FD53368DB689F89384627F49C
:1046D0007C57FDF7F9FD00F03E00FDF7F5FD33686E
:1046E0000743DB689F812A68218D3368891A626AD3
:1046F0005868114489B21981FEF7F4FA33681E89AB
:10470000DB689889FDF7E0FD10F003002B6818BF07
:104710000120626A304480B228821844238D1344F9
:1047200098423FF43CAF0F4B40F27B620E490F487A
:1047300001B0BDE8F04F03F0EDBB204601B0BDE88D
:10474000F04F01F04EB9991A002906DB01339B1A8C
:10475000228D9B1A002B7FF722AFA37E17E700BFA5
:1047600038050024DEA80008B3A90008149D00083D
:104770000A4A138ED06A591C30B589B2154610B159
:10478000548E9C4204D9EA6829861344187D30BDB2
:104790001B1B1186DBB2C05CF9E700BF24050024B7
:1047A00070B5194D0646AB8E2BB100232B86AC8E0F
:1047B0002B8EA34200D370BDFFF7DAFF0128F6D09D
:1047C000F9D3022817D1FFF7D3FF0428F3D12B8E9A
:1047D0000133A342EFDAFFF7CBFF000284B2FFF709
:1047E000C7FF204380B2431EB3F5067F28BF4FF4B6
:1047F00006703080DBE7FFF7BBFF0128DBD92B8E8B
:10480000023B18442886D2E7240500240D4B10B53E
:10481000044693F8280010F0100012D0A37EDB06A7
:1048200006D4D4F88C301BB16FF00E012069984784
:1048300021460548FEF7EAFF01202146FDF79CFFCF
:10484000012010BD240500249C3B00242DE9F74FD6
:1048500043680646934DEB604389132B40F28481F5
:10486000914F3968B846786902F029FB0446002860
:1048700040F07A817B6903F0F003E02B00F0748153
:10488000EB689889FDF720FD810A01F0FC011329EE
:1048900040F26A8189B233898B42C0F06581A1F10F
:1048A00014037289EC629BB28A42AB8641D34942BF
:1048B00030466B86FEF7CEF8EC684FF000097B4F70
:1048C0002088FDF701FD2080EC68DFF8E8A1608812
:1048D000FDF7FAFC6080EC68DFF8E0B16068FDF796
:1048E000F6FC6060EC682860A068FDF7F0FCA06052
:1048F000EC68A860E089FDF7E7FCEB68E081988947
:10490000FDF7E2FC3C68C0B200F03F0310F003008A
:104910002B7118BF0120338918442882002C41D103
:10492000634BDFF890B11C68DFF8B4A1DFF88C911D
:1049300021E133682BB95F4BB2225F495F4803F036
:10494000E9FA6FF013013046FEF784F87189AC8EF6
:1049500030466986641A494209B2FEF77BF830682E
:10496000A4B24389A342C0F0FF806142436809B208
:10497000EB62FEF76FF833891C1B738934812BB10E
:104980004C4BCF224E494D4803F0C4FA336832896C
:104990001B899A4290D0474BD0224A49474803F09E
:1049A000B9FA89E7237D2BB95346E2224649584696
:1049B00003F0B0FA237D0A2B05D15346E322434985
:1049C000584603F0A7FA237D012B05D15346E42274
:1049D0003F49584603F09EFAEA68218B13889942B2
:1049E000E3685CD1E18A5288914258D16168D8F875
:1049F0001020914253D12168D8F8142091424ED111
:104A0000A34240F0C1832B4BEC2232492B4803F0E8
:104A100081FAB9F1000F05D0E368C9F80C303B68A2
:104A20003C60E360E368A34205D1224BF4222A49AB
:104A3000224803F06FFA32890023AE61AA83EA6844
:104A40006B6185F828306B82C5E908232B791A073A
:104A500003D5737B43F001037373636F1F4E002B09
:104A600000F014812046FEF7E3FF0D3007D0636F9E
:104A7000002B00F00B812B8A002B00F00781638D47
:104A800013B9204600F0ADFF0024A86934606C62C1
:104A900010B1FDF7E5FFAC6103B0BDE8F08FA146B2
:104AA0001C463BE724050024740600249C3B00249C
:104AB000AC3B0024DEA8000869AA0008149D000889
:104AC00079AA000885AA0008A4AA0008CBAA0008B1
:104AD000F5AA00081CAB000847AB0008B03B002457
:104AE00071AB0008237D0A2B05D05B46FE225146A0
:104AF000484603F00FFAEB68228B1888904239D1B0
:104B0000E18A5A888A4235D16168D8F810309942D2
:104B100030D12168D8F8143099422BD12B795F0716
:104B200022D499072F8A12D52968636ACB1A13D425
:104B3000B4F828C0A3EB0C03002B0DDC874B3944E1
:104B4000CDE900201A1DA86801F0F8F80CE0D8079C
:104B500042BF834B1B68236237B1A37E43F002033D
:104B6000A376204600F072FF304603B0BDE8F04F58
:104B7000FDF776BFE468002CB4D17A4BEA68D3F82D
:104B800000C0D8F814E0E146B9F1000F0FD19089C8
:104B9000FDF79AFB4307E7D4EB68288A1A8829684F
:104BA00001925B88014400936C4B1A1DCBE7B9F866
:104BB00016005188814207D1D9F80010714500F0E4
:104BC000CA82002900F0C7824C46D9F80C90DBE776
:104BD0009A07C9D599F81500FFF75CF8044650B953
:104BE000D9F81830002BBFD001464FF0FF32D9F86A
:104BF00010009847B8E7D8F81430EA680360D8F88E
:104C000010304360B9F81630C3821378527843EA03
:104C100002230383032303752B6801334362C362BA
:104C2000FFF7C4F82B686065013BE06460642365AE
:104C3000D9F81030A0652361C4F8789099F808304D
:104C400003F00C0323723B683C60E36001F012FA4E
:104C5000454B012204F132001A70FFF7A1FDEB6809
:104C6000211D608EDB89A4F85C30A4F85E30FFF76C
:104C7000A9F812216086204600F000FE00283FF4CB
:104C800070AF51462046FEF759FF6DE795F8048056
:104C9000346018F0040F3BD0217D022922D1E26C50
:104CA000AB689A4209D195F8283043F0080385F89B
:104CB0002830A37E23F00103A37695F82830180747
:104CC00040F1E881D4F88C301BB16FF00D01206900
:104CD000984721462548FEF799FD21460120FDF71A
:104CE0004BFDD1E6626A2B689A4207D09B1AE4D446
:104CF000228D9B1A002BE0DCA37E11E00029D2D18B
:104D00001B4B40F2E7221B491B4803F003F9CAE79B
:104D100018F00209A37E06D0227D023A012A02D9A8
:104D200043F00203C8E7DB0604F132005EBF0C4B20
:104D30001B682362002384F89630FFF731FD237D42
:104D4000023B072BB9D8DFE813F019009700FD00EC
:104D500001014801FD0061017E0100BF84060024BD
:104D6000A03B0024A43B0024983B00249C3B00244F
:104D7000DEA800089EAB0008149D000808F012038E
:104D8000122B5DD1626CAB6801329A4258D12B680C
:104D90006264591CEA68013B608E6162E162D289FB
:104DA00023650423A4F85C20A4F85E20E118237591
:104DB000FFF708F841F21C1243006086800093421E
:104DC00038BF1346834228BF0346A4F84830B4F8DE
:104DD000623033B9A74B40F21A32A749A74803F013
:104DE00099F8B4F86230E76E013BA4F86230FFB97D
:104DF000A76E37B99F4B40F22232A1499F4803F07A
:104E000089F83B68A3663846FEF76AFAE36E93B901
:104E10004FF6FF732386D4F88430002B3FF46CAF39
:104E200000222146206998470D307FF465AF2BE6BC
:104E30003B68E366E7E70023238684F84230EAE72D
:104E400018F0100F3FF439AFEB68288A1A882968E8
:104E500001925B880144A86800938A4B1A1D00F0F8
:104E60006DFF94F84230052B3FF627AF0023204614
:104E7000238600F0BDFF20E718F0100F54D0636CBC
:104E8000A868DB43C34242D4E36CC31A002B3EDC68
:104E900004232375A36F43B19B6933B9754B40F26B
:104EA00051327949754803F035F8A36F1BB9204694
:104EB000FEF7BAFEE8E59B69002BF8D000222146F8
:104EC0002069984718B10D303FF4DEADEFE720467A
:104ED000FEF7EAFF6B8A0BB1013B6B82628E41F2F7
:104EE0001C11530092008B4238BF0B46934228BFDF
:104EF0001346A4F8483095F8283098067FF5DDAEC3
:104F0000A37E43F00203A37607232375D5E6EB685F
:104F10002F8A1A88296801925B8839440093594B7B
:104F20001A1D00F00BFFC8E6B9F1000F3FF4C5AE43
:104F3000636A2A68013B93427FF4BFAE204600F0CB
:104F400073FFBAE62046FEF7AFFFD4E72046FEF730
:104F5000ABFF95F8283013F0200F2B792FD013F0EA
:104F6000100FA37E26D0E16CAA68914222D1A26ED6
:104F700002BB43F002032046A376FEF747FA3B68E4
:104F80009C4209D1E3683B6008E0DA68944202D1B0
:104F9000E268DA6002E01346002BF6D13B4B0122B7
:104FA0001A700A2323753A4B1A681C60E26001F0FC
:104FB00061F882E643F00203A3760823A5E7D90649
:104FC0007FF57BAEE26CAB689A427FF476AEA36E5F
:104FD000002B7FF472AE062397E72046FEF764FFAE
:104FE00095F828309A067FF568AEA37E204643F0F8
:104FF0000203A376FEF70AFA3B689C42C2D0002B5C
:10500000CCD0DA689442C3D01346F8E72046FEF7C6
:105010004BFF2B79DB067FF550AEE26CAB689A4212
:105020007FF44BAEA36E002B7FF447AE2046FEF715
:10503000EDF93B689C42A5D0002BAFD0DA689442D2
:10504000A6D01346F8E72046FEF72EFF2B79DF06A1
:105050007FF533AEE26CAB689A427FF42EAEA36E5E
:10506000002B7FF42AAE95F8283043F0100385F822
:10507000283022E6DEA80008BEAB0008149D000818
:10508000D4AB000884060024E7AB0008983B00245A
:10509000AC3B00246A8A1AB1E36FDBB900236B8250
:1050A0002046FFF7B3FB00287FF4EEAC6B6A23B316
:1050B000636F33B1374B4FF4D2723749374802F040
:1050C00029FFA37E6A6A13F0100309D01046FDF78A
:1050D000C7FCECE62146206998470D30DED1D3E4C9
:1050E000D4F88070FFB121462069B84710F10D0F48
:1050F0003FF4CAAC08B16B6A636795F8283099062B
:1051000005D5636FABB15A7B42F020025A7300237E
:1051100020463360FFF77AFB00287FF4B5AC2046C9
:1051200000F094FCB0E43B4621463846FEF76EFCA6
:10513000DCE7238DD4F88070B3F5066F1CBF013314
:105140002385002FE3D00023214620691A46B84763
:105150000D30DCD198E434B1D9F80C10C3F80090CC
:10516000E160C9F80CC02B7959073FF5FDAC13F08D
:10517000100A3FF42DAD13882C8A2968CDE900036D
:10518000074B21441A1DDEE4B9F1000F7FF444AC53
:1051900051E400BFDEA8000805AC0008149D00081B
:1051A00084060024034A92F8283043F0100382F862
:1051B000283070472405002470B50C461E469DF823
:1051C00018109442049B28D29DF81450AD0707D4C0
:1051D0009D7E6D0621D419B1996E09B9DB6EE3B1DC
:1051E00004F21B2323F003018A4228BF0A4691B22E
:1051F0000022FDF797FC054668B1036833B1084B00
:105200004FF488720749084802F084FE6B891B1B23
:1052100033802C816C81284670BD2146E8E700BFB1
:105220001FAC000852AC0008149D00082DE9F84F8F
:105230009DF828B0814603200E464FEA8B07904622
:105240009A46FDF77DFAFDB2044628B93046FDF7CF
:1052500007FC2046BDE8F88F002380F80AB0BFB2F3
:10526000C0E900363389BB4205D21B4BBA221B4929
:105270001B4802F04FFE338914213046DF1B278183
:10528000FDF7E8FB074620B120460024FEF728F88A
:10529000DFE76368B9F816005E68E660FDF714F8AA
:1052A0003080E668B9F81800FDF70EF87080E668FF
:1052B0005046FDF70CF87060A802E66800F5A040C3
:1052C00000F4704040EA0800FCF7FEFFE368B0819C
:1052D0009F74DF74BDE700BF1FAC000866AC000818
:1052E000149D00081431F8B589B20546174601200F
:1052F0000022FDF717FC064640B34389132B05D85F
:10530000134B73221349144802F004FE7468E88AB0
:10531000FCF7DAFF2080288BFCF7D6FF67606080FF
:10532000686AFCF7D4FFA06045F21000FCF7CCFFE0
:10533000A081688DFCF7C8FF00236A8D2374637415
:10534000A374E3746B6AE0811344EB623046F8BDEA
:105350001FAC00087BAC0008149D00082DE9F04F3D
:1053600091B004460A9300230592ADF83E30438E77
:105370000793B0F85E30079A5B08934228BF134644
:10538000002B18BF1A46CDE9072159B9A44B4FF499
:10539000C972A449A44802F0BDFD6FF00F0011B01E
:1053A000BDE8F08F037D072B03D0023B022B00F2F8
:1053B0004C82059BEBB1B4F86030059A934206D25B
:1053C000A37E63F07F03A3764FF0FF30E7E7B4F8E6
:1053D0006220082AF4D8E36E002A00F09F8043B9C7
:1053E000A36E33B98E4B4FF4AB7290498E4802F0E6
:1053F00091FDB4F86230D4F868800693B8F1000FDC
:1054000000F0C2804646D6F800B0BBF1000F40F075
:105410008F80B57A3389AD00079A05F004052B44D7
:105420009A4206DA7E4B40F2C71281497E4802F06A
:1054300071FD3789079BDF1B7F1BB4F86450BFB237
:10544000ADF83E50002D75D0BD4206D9744B40F2E8
:10545000D9127849744802F05DFDBDF83E30B0467F
:10546000059A9A4228BF1A46BA421546A8BF3D4639
:105470007F1B5B1BBFB2ADF83E30BDF83E3053B171
:10548000059B9D4200F0E481654B40F2E1126A49C0
:10549000654802F03FFD059B9D4280F0D981002FB9
:1054A00000F06281B6F808A0BAF1000F00F05D814B
:1054B000A3EB050A0A9BBA45A8BFBA46DB071FFA49
:1054C0008AF839D501233A464146042002930A9BC3
:1054D000CDE900430DF13E03FFF76EFE8146002843
:1054E00000F0B081089B42464068591902F0FFFC69
:1054F0004846FDF767FC069B4FF0000A03449BB249
:10550000069305EB0807B046BFB20A9B4FF0000BAD
:1055100003F00103CDF82CB00C93FEE01BB9A36E91
:10552000002B3FF466AF3E4B40F2591243495DE712
:105530005E4668E7A846A0E77368D3F80090B9F123
:10554000000F12D11A7B012A11D15A895B681344CA
:10555000089A9A420BD135B1314B4FF40372384956
:10556000314802F0D7FCC246CBE74B46E5E70122C3
:1055700041460420FDF7D6FA8146002800F06281FA
:10558000089B2B444360B4E7B4F86470002F00F02C
:10559000EF80234B40F225222A4946462248C24644
:1055A00002F0B8FC45464746C146AEE7059B079A60
:1055B000DB1B9BB2934228BF13469BB209930C9B03
:1055C000002B43D0BBFA8BF3099900205B090293AF
:1055D0000A9BCDE900430DF13E03FFF7EDFD804648
:1055E000002852D04389099A934206D20C4B40F2CC
:1055F000412215490C4802F08DFCD8F80400DDE981
:105600000832D91902F073FC4046FDF7DBFB069B1C
:1056100003449BB2092B069360D9404633E000BF98
:105620001FAC0008A9AC0008149D0008DAAC000803
:1056300046AD00085DAD00087DAD000814AD000862
:105640009BAD0008C4AD0008F3AD0008BDF83E30C6
:1056500033B1834B40F24B228249834802F05AFC1B
:10566000012209990020FDF75DFA70B1089A0D90AA
:105670003A444260002211461046FDF753FA0D9B52
:10568000804638BB1846FDF7EBF9A37E63F07F0335
:10569000A376B9F1000F02D04846FDF7E1F9BBF15E
:1056A000000F02D05846FDF729FEB4F86230002BF7
:1056B0003FF48AAEE36E002B7FF486AEA36E002B20
:1056C0007FF482AE664B40F202326849664802F0CF
:1056D00021FC79E61946FDF791FB95E7A36D0022C1
:1056E0004146204600923B44FFF7A0FD804600283B
:1056F000CBD0BBF1000F35D00B9B33B9584B40F2E8
:1057000085225B49584802F005FC0B9BC3F80080DA
:10571000099BCDF82C801F44BFB2059B9F42FFF42C
:1057200045AF25B1776867BB33891D443581BDF826
:105730003E30A4F86430B9F1000F33D036B9484B8D
:1057400040F2BB224B49484802F0E4FB49467068EE
:10575000FDF754FB3389B9F8082013443381C6F8A8
:1057600000B041E08346D3E7BA462F46D146CCE6A7
:10577000BA463D463E46B946C7E64FF0000AD14616
:10578000D0E73B892B443B813B684BB97B682A4679
:1057900078890899184402F0AAFB7B892B447B8105
:1057A0003F68C0E7BAF1000F1AD00EB1736833B981
:1057B0002B4B40F2C12230492B4802F0ABFB7368FF
:1057C0001A891968524492B21A8139B95A895244D5
:1057D0005A8133899A44A6F808A0C0E70B46EFE740
:1057E000002EBCD1C4F868B0A36D059A1344A3651C
:1057F000B4F860309B1AA4F86030069BA4F86230BD
:1058000053B1E36E43B9A36E33B9154B40F2ED22A9
:105810001649154802F07EFBB8F1000F10D0D8F8F9
:105820000C0000283FF4BBAD0A9B13F0020507D122
:1058300084890820FCF748FDD8F80C302043988173
:105840000020ACE54FF000091FE76FF00A00A6E565
:10585000002D92D1BDF83E30A4F864307FE700BF40
:105860001FAC000831AE0008149D0008BDAE000852
:105870003FAE000850AE000888AE00082DE9F7439F
:1058800011F0030804460E4606D13D4B40F21B3290
:105890003C493D4802F03EFBB4F86230082B0AD97F
:1058A000F10708D4A37E4FF0FF3063F07F03A376A7
:1058B00003B0BDE8F083C6F3400700224FEA870932
:1058C00010464946FDF72EF905460028EAD04389DF
:1058D0004B4506D22A4B40F241322C492A4802F06D
:1058E00019FB00972946A36D32462046FFF79EFC20
:1058F00005460028D6D0C3689A0706D0204B40F250
:1059000049322349204802F005FB2B8933B11C4B57
:1059100040F24A321F491C4802F0FCFAA36E4BBB0E
:10592000A5660023A4F86430B8F1000F02D0A36D7F
:105930000133A365F30742BFA37E43F02003A376A0
:105940006868FDF73FFAB4F86230184480B2A4F8F2
:1059500062000028ACD0E06E48B9A46E002CA7D13C
:10596000074B40F26D320C49074802F0D3FA002091
:105970009EE713461A68002AFBD11D60D1E700BFDD
:105980001FAC0008DBAE0008149D000830AF000813
:1059900069AF000881AF0008ABAF0008F8B5846EAE
:1059A000054634B928460121BDE8F840FFF766BF37
:1059B0001C462368002BFBD1E3689889FCF784FC24
:1059C00010F00707EED1E36801209E89FCF77CFC0C
:1059D000E368304398813846AB7E43F02003AB76D2
:1059E000F8BD7FB50446C06CFCF771FC002102468F
:1059F0002046FFF777FC064640B9A37E6FF001050D
:105A000043F00303A376284604B070BD251D284645
:105A100001F0DEF8A0B106220290A37A214601929D
:105A20003046627A00922A4601F038FA054630463E
:105A3000FDF716F8A37E35B143F00303A376E2E742
:105A40006FF00305F3E723F00303F7E7037D012B72
:105A50002DE9F04F044687B006D1A44B40F2ED3259
:105A6000A349A44802F056FAA34B1B68A3424FD0A7
:105A7000B4F84830B4F85C60A56E9E4228BF1E465C
:105A8000A37E990710D52DB9204607B0BDE8F04F89
:105A9000FFF7A7BFEB685868FCF719FC2B89626C0D
:105AA0009B1A1844B042EFD8E76E002F33D104F1AF
:105AB0000408404601F08CF88146002800F03A8145
:105AC00023680BB943682360CDB1EB685868FCF7D5
:105AD000FEFB2B89626C9B1A1844B0426ED9002ED3
